:020000040800F2
:10000000880D0020A10100089D0A000809030008CE
:10001000190A0008E9010008E914000800000000BE
:10002000000000000000000000000000890F000830
:10003000EB01000800000000BD0B000809110008DA
:10004000BB010008BB010008BB010008BB010008A0
:10005000BB010008BB010008BB010008BB01000890
:10006000BB010008BB010008BB010008BB01000880
:10007000BB010008BB010008BB010008BB01000870
:10008000BB010008BB010008BB010008BB01000860
:10009000BB010008BB010008BB010008BB01000850
:1000A000BB010008BB010008BB010008BB01000840
:1000B000BB01000869110008BB010008BB01000872
:1000C000BB010008BB010008BB010008BB01000820
:1000D000BB010008BB010008BB010008BB01000810
:1000E000BB010008BB010008BB010008BB01000800
:1000F000BB010008BB010008BB010008BB010008F0
:10010000BB010008BB010008BB010008BB010008DF
:10011000BB010008BB010008BB010008BB010008CF
:10012000BB010008BB010008BB010008BB010008BF
:10013000BB010008BB010008BB010008BB010008AF
:10014000BB010008BB010008BB010008BB0100089F
:10015000BB010008BB010008BB01000841130008F7
:10016000BB010008BB010008BB010008BB0100087F
:10017000BB010008BB010008BB010008BB0100086F
:10018000BB010008BB010008DFF810D000F01AF82E
:100190000048004709150008AFF30080880D0020D3
:1001A0000648804706480047FEE7FEE7FEE7FEE711
:1001B000FEE7FEE7FEE7FEE7FEE7FEE70D110008BB
:1001C00089010008064C074D06E0E06840F0010395
:1001D00094E8070098471034AC42F6D3FFF7D8FFF5
:1001E000B06B0008D06B0008FEE770470A484FF478
:1001F0007A710068B0FBF1F0401EB0F1807F0AD246
:100200004FF0E0214861054AF02082F8140D0020EB
:100210008861072008617047740000200FE000E04B
:100220000249086008680028FCD1704720000020BF
:10023000F0B50023012403270D6804FA03F21540EA
:10024000954242D1D0F800C05E0007FA06F52CEACC
:10025000050CC0F800C091F804C0D0F800E00CFA1A
:1002600006FC4CEA0E0CC0F800C091F804C0BCF1CA
:10027000010F02D0BCF1020F1FD1D0F808C02CEA48
:10028000050CC0F808C091F805C0D0F808E00CFAD9
:1002900006FC4CEA0E0CC0F808C0D0F804C02CEAEA
:1002A000020CC0F804C0426891F806C00CFA03FCC6
:1002B0001FFA8CFC42EA0C024260C268AA43C26088
:1002C000CA79C568B2402A43C2605B1C102BB3D305
:1002D000F0BD4B07DB0E9A40C90810B500EB81005A
:1002E000016A0F249C40A1430162016A114301622B
:1002F00010BD0246002012690A4200D0012070475A
:100300004183704701837047FEE700001CB501215F
:10031000084600F055FC00208DF8040001218DF8FE
:1003200007108DF80500C803009069460148FFF7E3
:100330007FFF1CBD0000024070B50D4D4FF400441E
:1003400021462846FFF7D5FF38B90A20FFF768FF96
:1003500021462846FFF7CDFF08B1002070BD214699
:100360002846FFF7C6FF0028F9D0012070BD000025
:10037000000002402DE9F041204C0021A089401EE0
:1003800083B26089401E82B2084600F0CDF91C4855
:10039000018821F040010180018841F40061018061
:1003A000018841F0400101801649C5140D80A388E1
:1003B00013499EB2B4F80CC06389002208310F1DA6
:1003C00003FB0CF304E03E800C88A407FCD5521C10
:1003D0009342F8D80A881206FCD40A49891E0D8077
:1003E000018821F040010180018821F40061018031
:1003F000018841F040010180BDE8F08198080020AB
:10040000003C00401A0C024008B5002341F288313C
:100410000DE000BFADF8003005E000BFBDF80020E2
:10042000521CADF80020BDF800208A42F6D3401ED1
:10043000F0D208BD2DE9F05F0023203A02F0FF0B57
:10044000284A824689464FF400601C4619461080AF
:10045000DFF894E0254EDEF8000026E00768DFF8BC
:1004600090C00BFB0272BCF80070BCF804C09D5C2D
:100470000022BFB21FFA8CFC5FEAC57802D026F8D2
:10048000147001E026F814C0641C491CB0F8048004
:100490006D0889B2A4B2884501D1002103E0521C45
:1004A00092B2082AE8D35B1C9BB202899A42D5D843
:1004B000C288A9F1010111448BB28188AAF101001F
:1004C000084482B274464946504600F02DF920682F
:1004D0008188C088BDE8F05F414389B2034800F0DD
:1004E0000DBA00001A0C02406C0000209800002099
:1004F000980800202DE9F05FDFF8D08083468A4617
:10050000D8F80400002317780589066819465C1C92
:1005100005FB04FC16F80CC0BC4508D104FB0564BF
:1005200092F801C06478644501D1994604E09B1CAF
:1005300044899BB29C42EAD800221346C646244E08
:1005400027E00768DFF88CC009FB0474BCF8007072
:10055000BCF804C01D5D0024BFB21FFA8CFC00BFB4
:100560005FEAC57802D026F8127001E026F812C0C2
:10057000521C491CB0F804806D0889B292B28845BB
:1005800001D1002103E0641CA4B2082CE8D35B1C59
:100590009BB204899C42D4D8C288AAF101011144BB
:1005A0008BB28188ABF10100084482B27446514697
:1005B000584600F0B9F860688188C088BDE8F05FEF
:1005C000414389B2024800F099B900006C00002054
:1005D00098000020980800202DE9F04114460F46AD
:1005E00005460E4E15E07F2A09D839462846FFF702
:1005F00021FF3068641C8088284485B209E02246C7
:1006000039462846FFF776FF7068A41C8088284486
:1006100085B22278002AE6D1BDE8F0816C00002086
:100620002DE9FC410121C80300F0D6FA01210A207E
:1006300000F0C6FA234D062203212846FFF749FEA3
:10064000062205212846FFF744FE02248DF80440C7
:1006500003208DF8050000218DF8061008208DF884
:100660000710009069462846FFF7E2FD2020009021
:1006700069462846FFF7DCFD01208DF804008DF85F
:100680000540C402104F694638460094FFF7D0FD7C
:100690006500694638460095FFF7CAFDA600694621
:1006A00038460096FFF7C4FD29463846FFF72AFE74
:1006B00005481830048031463846FFF721FEBDE872
:1006C000FC81000000040240000C024010B5012132
:1006D00086B0C80300F080FA4FF44040ADF8000047
:1006E0004FF48270ADF802000020ADF80800ADF8BC
:1006F0000400ADF80C00ADF80600ADF80E004FF4A4
:1007000000710720074CADF80A10ADF810006946DB
:10071000204600F02FFB0121204600F021FB06B00F
:1007200010BD0000003C00402DE9F047804618480D
:100730004FF40065994616460F4605802A2000F0C2
:1007400013F9144CA17B01EB080080B200F02EF9E4
:10075000A07B304480B200F029F92B2000F004F98E
:10076000E07B384480B200F021F9E17B01EB090025
:1007700080B200F01BF92C2000F0F6F80648018842
:100780000906FCD40248801E0580BDE8F087000001
:100790001A0C024098080020083C00404FF47841B1
:1007A0004FF4FC6201EA102102EA5012C0F3C400C7
:1007B0001143014301484160704700009808002040
:1007C0004FF478414FF4FC6201EA102102EA501222
:1007D000C0F3C400114301430148016070470000A9
:1007E000980800202DE9F0411D4C1E4A4FF4006886
:1007F0006072A2F800800026F02538B102280AD0E5
:10080000502701281BD0032821D00EE0362000F00D
:10081000ABF8702003E0362000F0A6F8002000F0CE
:10082000D3F8A673E6736581A5810F480188090690
:10083000FCD40C49891EA1F80080BDE8F081362067
:1008400000F092F8A02000F0BFF8A773EAE7362086
:1008500000F08AF8C02000F0B7F8A673E773E2E76B
:10086000980800201A0C0240083C00400C494860DF
:10087000808814280FD005DC0C280AD0102807D156
:10088000084804E0182808D0202801D1064808604C
:1008900070470648FBE70648F9E70648F7E7000017
:1008A0006C00002054000020300000206000002078
:1008B000480000203C00002010B50B48FFF7D6FF91
:1008C0000020FFF77DFF0948FFF768FFFFF752FDA3
:1008D00007A200210120FFF77FFEBDE810404FF482
:1008E0007A70FFF79DBC000024000020A3A3A300A2
:1008F00052533438353A303600000000F0B5184A0B
:10090000138823F040031380138843F4006313809B
:10091000138843F040031380124BD5141D80104CF4
:1009200000230834261D06E030F81370378027882E
:10093000BF07FCD55B1C8B42F6D320880006FCD495
:100940000848801E0580108820F040001080108824
:1009500020F400601080108840F040001080F0BD4E
:10096000003C00401A0C02402DE9F0410D4C0746B6
:1009700020880006FCD40C4E4FF4805529463046A2
:10098000FFF7BEFC0748001D078020888007FCD5C4
:1009900020880006FCD429463046BDE8F041FFF728
:1009A000B1BC0000083C0040000C0240054A010AAE
:1009B0001180111F0B889B07FCD5108008888007C9
:1009C000FCD570470C3C004003490880081F018893
:1009D0008907FCD5704700000C3C00407CB5012124
:1009E000042000F0EDF801208DF8040000218DF8BE
:1009F00006108DF807004403064D8DF80510694672
:100A000028460094FFF714FC21462846FFF77AFC9D
:100A10007CBD000000080240FEE7000004480221FF
:100A20000170002180F86710012180F8D51070470F
:100A3000A80800201FB50121022000F0CDF80020F9
:100A400040F2E731ADF802000191ADF8080040F244
:100A50004731ADF800108DF80A0069464FF080402C
:100A600000F026FC0C4C01221146204600F0C3FB8E
:100A70001D208DF80C0001218DF80D1002208DF83D
:100A80000E008DF80F1003A800F00AF8012120468F
:100A900000F09BFB1FBD00000004004070470000F9
:100AA00030B50F22C47801780123FCB1144C2468BE
:100AB00001F1E02104F4E064C4F5E064C4F3072428
:100AC000C4F10405E2404478AC40857815402543E4
:100AD0002A0181F80024007800F01F018B404009B2
:100AE000800000F1E020C0F8003130BD01F01F00AF
:100AF00083404809800000F1E020C0F8803130BD1B
:100B00000CED00E00249084302490860704700000C
:100B10000000FA050CED00E030B501218BB008466D
:100B200000F05AF80121084600F04AF802208DF83A
:100B3000240000248DF8264008908DF827400320DB
:100B40001D4D8DF8250008A92846FFF771FB0122ED
:100B500011462846FFF7BDFBC7200690ADF81640AA
:100B600040F24730ADF81C40ADF814006D038DF82D
:100B70001E4005A9284600F09BFB684600F08EFB4E
:100B80006020ADF800000120ADF802003220029094
:100B9000A815ADF81000ADF80C406946284600F0E5
:100BA00033FB0021284600F06FFB0121284600F0AE
:100BB0000CFB0BB030BD000000000240704700008D
:100BC000044A0029116801D0014300E0814311600B
:100BD0007047000030380240044A0029116801D0F3
:100BE000014300E08143116070470000403802403B
:100BF000044A0029116801D0014300E081431160DB
:100C0000704700004438024070B5204A1168204CFB
:100C100011F00C0104D06610042903D0082903D078
:100C200004601BE0066019E01849091F0B68C3F354
:100C300080550B6803F03F0315B1B6FBF3F301E0F9
:100C4000B4FBF3F30C680968C4F388146343C1F37D
:100C50000141491C4900B3FBF1F1016011680F2308
:100C600003EA11110B4B5C5C0168E14041601468C0
:100C7000072505EA94241C5D21FA04F484601268B7
:100C800005EA52329A5CD140C16070BD083802401A
:100C90000024F40088000020F0B587B00121042072
:100CA000FFF78EFF01212020FFF7A2FF02268DF81B
:100CB000046000248DF8064040200125264F009056
:100CC0008DF807508DF8056069463846FFF7B0FA91
:100CD0008DF804408DF80640802000908DF8075074
:100CE0008DF8056069463846FFF7A2FA082206210A
:100CF0003846FFF7EEFA082207213846FFF7E9FAEF
:100D00004FF4165002900C20ADF81200134EADF8BF
:100D10000E40ADF81440ADF81040ADF80C4002A9FB
:100D2000304600F083FB47208DF818008DF81B50EB
:100D30008DF819508DF81A4006A8FFF7B1FE012270
:100D400040F22551304600F059FB0121304600F0B9
:100D500025FB07B0F0BD0000000802400014014070
:100D60000029018802D041F0400101E021F040015A
:100D70000180704730B502884C8802F441530A88DC
:100D8000CD8822438C882C4322430C8922434C89F2
:100D900022438C892243CC8922431A430280828BCE
:100DA00022F400628283098A018230BD10B5FFF708
:100DB00037FCFFF78BFC0520FFF726FB6D484FF44F
:100DC000006404803620FFF7CFFD0020FFF7FCFD14
:100DD0003A20FFF7C9FD0520FFF7F6FDB220FFF727
:100DE000C3FD0C20FFF7F0FD0C20FFF7EDFD002008
:100DF000FFF7EAFD3320FFF7E7FD3320FFF7E4FDBF
:100E0000B720FFF7B1FD3520FFF7DEFDBB20FFF770
:100E1000ABFD1920FFF7D8FDC020FFF7A5FD2C2062
:100E2000FFF7D2FDC220FFF79FFD0120FFF7CCFDA9
:100E3000C320FFF799FD1220FFF7C6FDC420FFF77E
:100E400093FD2020FFF7C0FDC620FFF78DFD0F208A
:100E5000FFF7BAFDD020FFF787FDA420FFF7B4FD10
:100E6000A120FFF7B1FDE020FFF77EFDD020FFF7C6
:100E7000ABFD0420FFF7A8FD0D20FFF7A5FD112015
:100E8000FFF7A2FD1320FFF79FFD2B20FFF79CFD2E
:100E90003F20FFF799FD5420FFF796FD4C20FFF708
:100EA00093FD1820FFF790FD0D20FFF78DFD0B201F
:100EB000FFF78AFD1F20FFF787FD2320FFF784FD42
:100EC000E120FFF751FDD020FFF77EFD0420FFF762
:100ED0007BFD0C20FFF778FD1120FFF775FD132037
:100EE000FFF772FD2C20FFF76FFD3F20FFF76CFD31
:100EF0004420FFF769FD5120FFF766FD2F20FFF723
:100F000063FD1F20FFF760FD1F20FFF75DFD202020
:100F1000FFF75AFD2320FFF757FD2120FFF724FD9F
:100F20001120FFF721FD7820FFF76EFA2920FFF747
:100F30001BFD114801880906FCD40E48801E048060
:100F40000220FFF74FFC0020FFF728FC6FF07F40E6
:100F5000FFF736FCFFF70EFA09490848086009490F
:100F6000002008720348BDE810404FF400511A38C1
:100F7000FFF7C8B91A0C0240083C00403C000020B2
:100F80006C0000209808002070470000F0B5012197
:100F900087B00846FFF714FE01211020FFF728FE56
:100FA00002258DF8045000248DF806402802012601
:100FB000264F00908DF807608DF805506946384639
:100FC000FFF736F98DF804508DF80640680200905E
:100FD0008DF807608DF8055069463846FFF728F907
:100FE000072209213846FFF774F907220A213846FB
:100FF000FFF76FF94FF4E13002900C20ADF81200CA
:10100000ADF80E40ADF81440ADF81040ADF80C400E
:101010000F4C02A9204600F009FA25208DF818008F
:101020008DF81B6003218DF819108DF81A1006A891
:10103000FFF736FD012240F22551204600F0DEF98F
:101040000121204600F0AAF907B0F0BD00000240DF
:10105000001001400CB500202749019000900A685B
:1010600042F480320A604FF4A0430A6802F400326E
:101070000092019A521C0192009A12B9019A9A4266
:10108000F3D10A68920334D5012000901A48403009
:10109000026842F0805202601848026842F44042FE
:1010A00002601548083002680260026842F400429B
:1010B0000260026842F4A0520260031F104A1A60E4
:1010C0000A6842F080720A600A689201FCD50D4AF3
:1010D00040F205711160016821F0030101600168AF
:1010E00041F0020101600168C1F381010229FAD1D6
:1010F0000CBD00900CBD00000038024000700040A4
:1011000008544007003C024000F010B9124810B5E6
:10111000016841F4700101601048016841F001016B
:1011200001600E4A00210832116002680C4B1A401F
:101130000260031D0B4A1A60026822F480220260DA
:1011400006480C300160FFF785FF03494FF000604F
:101150008039086010BD000088ED00E000380240D2
:10116000FFFFF6FE1030002410B5144C012120467C
:1011700000F035F800281FD00121204600F022F8A9
:101180000F48012290F8671061B190F86510491C72
:10119000C9B280F86510082904D3002180F86710CF
:1011A00080F86820D0F8D810491CC0F8D810B1F5E4
:1011B0007A7F01DD80F8DC2010BD000000040040D3
:1011C000A8080020C943018270470029018802D085
:1011D00041F0010101E021F0010101807047024668
:1011E0000020138A92890B4202EA010202D0002AEF
:1011F00000D001207047002A828901D00A4300E014
:101200008A4382817047000070B5028C22F0100280
:101210000284028C8488038B0D8823F4E6464FF603
:10122000FF7303EA052535438E8922F0200203EA85
:10123000061616434A8803EA02123243104EB042A1
:1012400002D0104EB04215D122F08006CA8924F493
:10125000406403EA0212324322F040068A8803EA1D
:10126000021232430E8A03EA860626434C8A03EAB8
:10127000840434438480058389688163028470BD5B
:101280000000014000040140028B4FF6FF7322F47E
:10129000006203EA012111430183704700210180AC
:1012A0004180818081608181C1810182418270475A
:1012B00030B50288164B174C98420DD0A0420BD087
:1012C000B0F1804F08D0144DA84205D0134DA8426C
:1012D00002D0134DA84203D122F070054A882A4358
:1012E000104DA84206D0104DA84203D022F44075FC
:1012F0000A892A4302804A68C2620A8802859842A3
:1013000001D0A04201D1897A01860121818230BDBC
:1013100000000140000401400004004000080040BB
:10132000000C004000100040001400400348016819
:10133000002902D00168491E01607047200000208A
:1013400010B5134C40F22551204600F038F8012822
:101350001DD1204600F0C0F8C4B221460D4800F06F
:10136000BFF80D4890F86810012910D090F8662059
:10137000411C545490F866100022491CC9B280F8F0
:10138000661080F86520012901D180F8671010BD32
:101390000014014000100140A808002000298189A4
:1013A00002D041F4005101E021F4005181817047E5
:1013B0000246002012880A4200D00120704730B552
:1013C00001F01F0201240025C1F3421304FA02F2C6
:1013D000012B0FD0022B0FD0838A4FEA11210088F6
:1013E000134204FA01F400EA040001D000B101251F
:1013F000284630BD8389F0E7038AEEE710B5C1F3D4
:10140000421301F01F040121A140012B07D0022B40
:1014100007D01430002A026805D00A4304E00C30DB
:10142000F8E71030F6E78A43026010BD7FB5044646
:10143000008A0D4620F44051E88808432082A089A4
:1014400041F20C618843A9882A8911436A890243C1
:101450001143A181A08A20F44071A8890843A08289
:101460006846FFF7D1FB1A48844202D019488442EB
:1014700001D1039800E00298A189090400EBC001A2
:1014800001EB0010296801D5490000E08900B0FB9C
:10149000F1F26420B2FBF0F109010B096FF01805BD
:1014A0006B4302EB8302A3891D044FF0320306D580
:1014B00003EBC202B2FBF0F000F0070005E003EB23
:1014C0000212B2FBF0F000F00F00084320817FBD54
:1014D00000100140001401408088C0F308007047EC
:1014E000C1F3080181807047FEE702E008C8121FBF
:1014F00008C1002AFAD170477047002001E001C1FD
:10150000121F002AFBD17047FEF770FEFFF766FA44
:10151000FEF7FCFEFFF74AFCFFF7FEFAFFF7CCF9F7
:10152000FFF734FDFFF7B8FBFFF784FAFFF776FA11
:101530004FF4165000F05CF84FF4A060FFF7E2FAA9
:10154000294C2A4E2079A070FEF7F6FE0128FBD127
:101550002078401CC0B22070012814D16078002887
:10156000F2D1214F0025183740213046FFF720FFE8
:101570000028F9D0795D3046FFF7B2FF6D1C082DC9
:10158000F2DB012060702078022814D160780128F5
:10159000DAD1154F0025103740213046FFF708FFFC
:1015A0000028F9D0795D3046FFF79AFF6D1C082DB1
:1015B000F2DB0220607020780328C5D16078022811
:1015C000C2D1094F0025083740213046FFF7F0FE11
:1015D0000028F9D0795D3046FFF782FF6D1C082D99
:1015E000F2DB00202070AFE7000000200048004040
:1015F000F0B5064687B001210220FFF7E1FA01218C
:101600008804FFF7E9FA234F07220A213846FEF73C
:1016100060FE07220B213846FEF75BFE4FF4406068
:10162000049002208DF814008DF8150000248DF828
:10163000164001258DF8175004A93846FEF7F8FD2D
:101640000096ADF808400C20134EADF80440ADF8FC
:101650000A00ADF80640ADF80C4069463046FFF789
:10166000E5FE01213046FFF799FE012240F22551A7
:101670003046FFF7C3FE27208DF8180007208DF8AD
:1016800019008DF81A408DF81B5006A8FFF708FACC
:1016900007B0F0BD00040240004800400000000018
:1016A000000000000000000000007FF8FF001800AC
:1016B00000180000180000F8FF3F98013098031848
:1016C00018030818060C180C060818030CF0000C78
:1016D000F001061C0786033C7300E00000000000D8
:1016E00000000000B7B4000000000000000000008F
:1016F00000000000000000000000000000000000EA
:1017000000000000000000000000000000000000D9
:1017100000000000000000000000000000000000C9
:1017200000000000000000000000000000000000B9
:101730000000000000000000001000007000FCFF2E
:10174000FF0C07C08C03C0C0FF1FF0030E1C8E03EC
:10175000007800C0C7073F00F8E0FF1F6000186076
:101760000018600018E0FF1F600018000000000073
:1017700000000000BFCD00000000000000000000DD
:101780000000000000000000000000000000000059
:101790000000000000000000000000000000000049
:1017A0000000000000000000000000000000000039
:1017B0000000000000000000000000000000000029
:1017C00000000000000000000000188007187E30B4
:1017D0001860601860801960001BFE0718601818F8
:1017E000F0711870C3186806186C00FF66FE186266
:1017F0000018600018600018600018000000000069
:1018000000000000BFC60000000000000000000053
:1018100000000000000000000000000000000000C8
:1018200000000000000000000000000000000000B8
:1018300000000000000000000000000000000000A8
:101840000000000000000000000000000000000098
:1018500000000000000000003000033000033000F2
:101860000330FCFFFF010330000330000330FE7F34
:10187000F019603F383030301830600C30C006301E
:10188000800330E00E3038781F07C00000000000F1
:1018900000000000BCBC00000000000000000000D0
:1018A0000000000000000000000000000000000038
:1018B0000000000000000000000000000000000028
:1018C0000000000000000000000000000000000018
:1018D0000000000000000000000000000000000008
:1018E00000000000000000000000C0F8FFC018C0A9
:1018F000CC18C0CCF8FFCC18C0CC180CCC180CCC31
:10190000D8FFCCD8CCCCD8CCCCD8CCCCCCCCC0CCC0
:10191000CCC004FCC0060C7E0000000000000000EB
:1019200000000000CBA2200000000000000000002A
:1019300000000000000000000000000000000000A7
:101940000000000000000000000000000000000097
:101950000000000000000000000000000000000087
:101960000000000000000000000000000000000077
:101970000000000000000000000000F8FF7F1800D9
:1019800060180060F8FF7F180666180C0618080338
:10199000D8FF7F180C06180C06F8FFFF0C0C060C7D
:1019A0000C060406060603060301060000000000FC
:1019B00000000000C6C12000000000000000000080
:1019C0000000000000000000000000000000000017
:1019D0000000000000000000000000000000000007
:1019E00000000000000000000000000000000000F7
:1019F00000000000000000000000000000000000E7
:101A000000000000000000000200C084FFCC9CC168
:101A1000CC88C1CC80D9CC83D9CC8ED9CC98D9CC28
:101A200080D9CC80D9CC88D9CC98CDCC0C0CCC0C1E
:101A300036C00C63C0C6C1C074807D0000000000C9
:101A400000000000B2E220000000000000000000E2
:101A50000000000000000000000000000000000086
:101A60000000000000000000000000000000000076
:101A70000000000000000000000000000000000066
:101A80000000000000000000000000000000000056
:101A9000000000000000000002001B0C0073180092
:101AA0004338000380FFFF0000031F0003180003FA
:101AB00098FF03181802181806981806D818867880
:101AC000188C38F88D9C0F980800F000000000007A
:101AD00000000000CAD42000000000000000000048
:101AE00000000000000000000000000000000000F6
:101AF00000000000000000000000000000000000E6
:101B000000000000000000000000000000000000D5
:101B100000000000000000000000000000000000C5
:101B20000000000000000000008301FEFFFF0083B2
:101B300001F0FF3F300030F0FF3F300030F0FF3F5A
:101B4000300C30000600FEFFFFC0300CF8FF7F674E
:101B5000309860301860301F003000000000000036
:101B600000000000C4BB20000000000000000000D6
:101B70000000000000000000000000000000000065
:101B80000000000000000000000000000000000055
:101B90000000000000000000000000000000000045
:101BA0000000000000000000000000000000000035
:101BB000000000000000000000630080C100C08041
:101BC0000160000330000618001C0E00700200C007
:101BD000F8FF0F00030E00030E800106800106C00F
:101BE000000660000738FC030E0000000000000043
:101BF00000000000B7D62000000000000000000038
:101C000000000000000000000000000000000000D4
:101C100000000000000000000000000000000000C4
:101C200000000000000000000000000000000000B4
:101C300000000000000000000000000000000000A4
:101C4000000000000018600C306018306010FEE1E9
:101C5000FF00600082EDC1C46C636C6C36FE65FFF2
:101C6000306618306618306018FEB1FF3030183812
:101C700018181C1C180E0E18020218000000000094
:101C800000000000B1E6200000000000000000009D
:101C90000000000000000000000000000000000044
:101CA0000000000000000000000000000000000034
:101CB0000000000000000000000000000000000024
:101CC0000000000000000000000000000000000014
:101CD0000000000000000000003800007000FFFF5E
:101CE000FF003800064E608C6338D03F08001C00AF
:101CF000202604F8C31CCFFFF1023041003000FF62
:101D0000FFFF003000003000003000000000000045
:101D100000000000C2CA2000000000000000000017
:101D200000000000000000000000000000000000B3
:101D300000000000000000000000000000000000A3
:101D40000000000000000000000000000000000093
:101D50000000000000000000000000000000000083
:101D6000000000000030800030800130000330FEB1
:101D7000FFFE06C03086C430401830303030186066
:101D8000F00FC03EF87F3000033000033000033016
:101D9000000330000330FFFF1E00000000000000C1
:101DA00000000000BFD8200000000000000000007C
:101DB0000000000000000000000000000000000023
:101DC0000000000000000000000000000000000013
:101DD0000000000000000000000000000000000003
:101DE00000000000000000000000000000000000F3
:101DF00000000000000000008001609801608C017C
:101E000063FC3F63860163820163FFFF63800163BC
:101E1000800163FC7F638C61638C61638C61608C87
:101E200061608C3D6080013F000000000000000008
:101E300000000000D6C620000000000000000000E6
:101E40000000000000000000000000000000000092
:101E50000000000000000000000000000000000082
:101E60000000000000000000000000000000000072
:101E70000000000000000000000000000000000062
:101E80000000000000000000000000FCC77F0CC63E
:101E9000600CC660FCC77F0CC660003006FEFFFF0A
:101EA000006E0000C701F0010F1F00F8FCC77F0C97
:101EB000C6600CC660FCC77F0CC660000000000056
:101EC00000000000C6F72000000000000000000035
:101ED0000000000000000000000000000000000002
:101EE00000000000000000000000000000000000F2
:101EF00000000000000000000000000000000000E2
:101F000000000000000000000000000000000000D1
:101F10000000000000000800001800003000FEFF74
:101F2000FF0600C00600C0E0FF0F000007008001B0
:101F300000E000003000FFFFFF0030000030000034
:101F40003000003000801F00000000000000000092
:101F500000000000D7D620000000000000000000B4
:101F60000000000000000000000000000000000071
:101F70000000000000000000000000000000000061
:101F80000000000000000000000000000000000051
:101F90000000000000000000000000000000000041
:101FA000000000000020800130C000F8DFFFC860A2
:101FB0000684710C02390801100060000C70000CDE
:101FC000B8FFFF3C000C36040C320C0C30180C30FF
:101FD000100C30000C30000C30E007000000000056
:101FE00000000000B7FB200000000000000000001F
:101FF00000000000000000000000000000000000E1
:1020000000000000000000000000000000000000D0
:1020100000000000000000000000000000000000C0
:1020200000000000000000000000000000000000B0
:102030000000000000000000C0300060E000F0FF81
:10204000FF386000F6FFFF336000F0FFFF306000F4
:10205000F0FFFF300000003000003000FEFFFF0006
:10206000FE018031077030380F30C00000000000E2
:1020700000000000BCAF20000000000000000000D5
:102080000000000000000000000000000000000050
:102090000000000000000000000000000000000040
:1020A0000000000000000000000000000000000030
:1020B0000000000000000000000000000000000020
:1020C00000000000000000000018000018000018C8
:1020D00000001800FCFF7F0C18600C18600C1860E2
:1020E0000C18600C1860FCFF7F0C186000180000D2
:1020F0001800001800001800001800000000000080
:1021000000000000D6D02000000000000000000009
:1021100000000000000000000000000000000000BF
:1021200000000000000000000000000000000000AF
:10213000000000000000000000000000000000009F
:10214000000000000000000000000000000000008F
:102150000000000000001C00003800006000FFFFCD
:10216000FF60000C60000CC00006C0000680010388
:1021700000830100C700006C0000380000EE00C0C2
:10218000830778003C0600E000000000000000002B
:1021900000000000CEC4200000000000000000008D
:1021A000000000000000000000000000000000002F
:1021B000000000000000000000000000000000001F
:1021C000000000000000000000000000000000000F
:1021D00000000000000000000000000000000000FF
:1021E0000000000000000000000000F8FF3F1800A1
:1021F00030180030F8FF3F180030180030F8FF3F6B
:1022000018003004C62008C63018C63830C618205A
:10221000C60800C600FEFFFF00000000000000002E
:1022200000000000CFD420000000000000000000EB
:10223000000000000000000000000000000000009E
:10224000000000000000000000000000000000008E
:10225000000000000000000000000000000000007E
:10226000000000000000000000000000000000006E
:102270000000000000000000000000FCFF7F0000E4
:1022800000000000000000000000FFFFFF00300021
:1022900020300430300C3830181830300C306006E4
:1022A00030C0023080003000801F000000000000BD
:1022B00000000000CABE2000000000000000000076
:1022C000000000000000000000000000000000000E
:1022D00000000000000000000000000000000000FE
:1022E00000000000000000000000000000000000EE
:1022F00000000000000000000000000000000000DE
:102300000000000000000000000000FEFFFF0030A1
:10231000000030000030003030003030003030003D
:1023200030F07F303000303000303000303000305E
:102330003000303000FFFFFF000000000000000010
:1023400000000000D5FD200000000000000000009B
:10235000000000000000000000000000000000007D
:10236000000000000000000000000000000000006D
:10237000000000000000000000000000000000005D
:10238000000000000000000000000000000000004D
:102390000000000000000000000300800100C0FFFA
:1023A000076000033880010C6000F4FF3F3000300C
:1023B000303030303030303030303030303030301D
:1023C000F83000980300070EE001781E00C00000FE
:1023D00000000000B8BA200000000000000000006B
:1023E00000000000000000000000000000000000ED
:1023F00000000000000000000000000000000000DD
:1024000000000000000000000000000000000000CC
:1024100000000000000000000000000000000000BC
:10242000000000000000000000300000300000301C
:102430000000300060300630300C30301C1830386E
:102440001830300C30600E30E00630C002308000B2
:102450003000003000C01F0000000000000000003D
:1024600000000000D0A120000000000000000000DB
:10247000000000000000000000000000000000005C
:10248000000000000000000000000000000000004C
:10249000000000000000000000000000000000003C
:1024A000000000000000000000000000000000002C
:1024B0000000000000000000C00003C60C01C4863C
:1024C00001C080FFFECF60E0C060F8E360CCFE3169
:1024D000C39831308031FF0F1B0C0C1B06060E3CDD
:1024E000070EE0031BE0C3313C76E00718800000D4
:1024F00000000000CAFD20000000000000000000F5
:1025000000000000000000000000000000000000CB
:1025100000000000000000000000000000000000BB
:1025200000000000000000000000000000000000AB
:10253000000000000000000000000000000000009B
:10254000000000000000000030000330000330FEF7
:10255000FF300003300003FFFD7F300C6030FC7F54
:10256000300C6030FC7F300C60B0FD7F780C600771
:10257000FFFF00601C001CF0800300000000000052
:1025800000000000CCEE2000000000000000000071
:10259000000000000000000000000000000000003B
:1025A000000000000000000000000000000000002B
:1025B000000000000000000000000000000000001B
:1025C000000000000000000000000000000000000B
:1025D00000000000000000000008000018000038A3
:1025E00000FFFFFF000E00808301C0000770000C99
:1025F000FCFF3F00C32000C30080C10080C1C0E0D9
:10260000C0C038C0C007807F00000000000000008C
:1026100000000000B3E42000000000000000000003
:1026200000000000000000000000000000000000AA
:10263000000000000000000000000000000000009A
:10264000000000000000000000000000000000008A
:10265000000000000000000000000000000000007A
:102660000000000000000000003800007000FEFFC5
:10267000FF0600C00686C3C0011E3800700600C0F9
:10268000000000F8FF3F00180000180000180000CC
:102690001800001800FEFFFF00000000000000000E
:1026A00000000000BFD52000000000000000000076
:1026B000000000000000000000000000000000001A
:1026C000000000000000000000000000000000000A
:1026D00000000000000000000000000000000000FA
:1026E00000000000000000000000000000000000EA
:1026F000000000000000000030600030300030F0CA
:102700007F307870FF5B3830CC0CF88007B8C10F91
:102710003C7A78360EC033F87F311860301860305C
:10272000186030186030F87F30186000000000003A
:1027300000000000B8F120000000000000000000D0
:102740000000000000000000000000000000000089
:102750000000000000000000000000000000000079
:102760000000000000000000000000000000000069
:102770000000000000000000000000000000000059
:102780000000000000000000000000000000000049
:102790000000000000000000000000000000000039
:1027A0000000000000000000000000000000000029
:1027B0000000000000000000000000000000000019
:1027C0000000000000000000000000000000000009
:1027D00000000000000000000000000000000000F9
:1027E00000000000000000000000000000000000E9
:1027F00000000000000000000000000000000000D9
:1028000000000000000000000000000000000000C8
:1028100000000000000000000000000000000000B8
:1028200000000000000000000000000000000000A8
:102830000000000000000000000000000000000098
:102840000000000000000000000000000000000088
:102850000000000000000000000000000000000078
:102860000000000000000000000000000000000068
:102870000000000000000000000000000000000058
:102880000000000000000000000000000000000048
:102890000000000000000000000000000000000038
:1028A0000000000000000000000000000000000028
:1028B0000000000000000000000000000000000018
:1028C0000000000000000000000000000000000008
:1028D00000000000000000000000000000000000F8
:1028E00000000000000000000000000000000000E8
:1028F00000000000000000000000000000000000D8
:1029000000000000000000000000000000000000C7
:1029100000000000000000000000000000000000B7
:1029200000000000000000000000000000000000A7
:10293000C003C003C003C003C003C0038003800101
:102940008001800180018001800180018001000000
:10295000000000008001C003C003800100000000EF
:102960000000000000000000C018E01CE01C700E19
:10297000300618038C0184000000000000000000F5
:102980000000000000000000000000000000000047
:102990000000000000000000000000000000000037
:1029A0000000000000000000000000000000000027
:1029B00020102010201020102010FE7FFE7FFE7FB0
:1029C000100810081008100810081008FE7FFE7F7D
:1029D000FE7F180C08040804080408040000000026
:1029E00000000000000000000000000080008000E7
:1029F000C003B00C90189818981C981CB800B00030
:102A0000F000E000C0038007800F800C801C80185D
:102A10009C189C188C188C0C9806E0038000800091
:102A20008000000000000000000000000000000026
:102A30001C08360822046304630263026302630114
:102A400063012201B61C9C36402240634063206330
:102A500020631063106310220836081C0000000079
:102A60000000000000000000000000000000000066
:102A7000F00098008C018C018C018C018C00CC0042
:102A80005C0038001C3E3C08320873086304E30411
:102A9000C3048303834306678C3E781C0000000058
:102AA00000000000000000001C003C003C00300062
:102AB000300010000C0006000000000000000000C4
:102AC0000000000000000000000000000000000006
:102AD00000000000000000000000000000000000F6
:102AE000000000000000000000400020001000185E
:102AF000000C0004000600020003000380018001B6
:102B0000800180018001800180018001800100033B
:102B10000003000200060004000C00180010002052
:102B2000004000000000000002000400080018003F
:102B30003000200060004000C000C0008001800123
:102B40008001800180018001800180018001C0003E
:102B5000C000C00060002000300018000800040021
:102B60000200000000000000000000000000000063
:102B7000000000000003800380030C631C713839DF
:102B8000600D80038003600D38391C718C618003F7
:102B9000800380030000000000000000000000002F
:102BA0000000000000000000000000000000000025
:102BB0000000000000000001000100010001000110
:102BC00000010001FC7F0001000100010001000183
:102BD00000010001000000000000000000000000F3
:102BE00000000000000000000000000000000000E5
:102BF00000000000000000000000000000000000D5
:102C000000000000000000000000000000000000C4
:102C1000000000001C003C003C00300030001000B0
:102C20000C00060000000000000000000000000092
:102C30000000000000000000000000000000000094
:102C400000000000FE7F0000000000000000000007
:102C50000000000000000000000000000000000074
:102C60000000000000000000000000000000000064
:102C70000000000000000000000000000000000054
:102C80000000000000000000000000000000000044
:102C90000000000018003C003C001800000000008C
:102CA0000000000000000000000000400060002064
:102CB0000030001000180008000C0004000600029C
:102CC0000003000180018000C0004000600020007F
:102CD00030001000180008000C000400060002007C
:102CE00000000000000000000000000000000000E4
:102CF000C0036004300C1818181818100C300C3071
:102D00000C300C300C300C300C300C300C300C30E3
:102D1000181018181818300C6004C00300000000C8
:102D200000000000000000000000000000000000A3
:102D300000018001F8018001800180018001800193
:102D4000800180018001800180018001800180017B
:102D50008001800180018001C003F81F0000000095
:102D60000000000000000000000000000000000063
:102D7000E007101C0818043004300C300C30003010
:102D800000180018000C000600038001C00040007D
:102D90002020102008200430FC1FFC1F0000000031
:102DA0000000000000000000000000000000000023
:102DB000E00318060C0C0C180C180C18001800185E
:102DC000000C0006C003000E001800100030003098
:102DD0000C300C300C100C18180CE0030000000034
:102DE00000000000000000000000000000000000E3
:102DF0000006000600070007800680064006200641
:102E000020061006100608060C0604060206FE3F01
:102E100000060006000600060006C03F0000000095
:102E200000000000000000000000000000000000A2
:102E3000F03FF03F08000800080008000800080004
:102E4000C807280C18180810003000300030003077
:102E50000C300C3004180418180CE00300000000BB
:102E60000000000000000000000000000000000062
:102E700080076018301810181800080008000C00AF
:102E8000CC076C0C1C181C100C300C300C300C30A7
:102E90000C30183018103018700CC00700000000FB
:102EA0000000000000000000000000000000000022
:102EB000F83FF83F08100C0804080404000400025E
:102EC00000020002000100018000800080008000FC
:102ED000C000C000C000C000C000C0000000000072
:102EE00000000000000000000000000000000000E2
:102EF000E007300C18180C300C300C301C301C1053
:102F00007818F004E003180F0C1E0C1C063806306D
:102F10000630063006300C18180CE00300000000E4
:102F200000000000000000000000000000000000A1
:102F3000E00318040C080C180610063006300630A2
:102F4000063006300E380C341836F03100300018D8
:102F5000001800080C0C0C060C03F0010000000027
:102F60000000000000000000000000000000000061
:102F700000000000000000000000000000008001D0
:102F8000C003C0038001000000000000000000003A
:102F9000000000008001C003C003800100000000A9
:102FA0000000000000000000000000000000000021
:102FB0000000000000000000000000000000000011
:102FC000C001C001C00100000000000000000000BE
:102FD000000000000000C001C001C0018001C0006D
:102FE000C000000000000000000000000000000021
:102FF00000200010000800040002000180004000D2
:103000002000100008000800100020004000800090
:103010000001000200040008001000200000000071
:1030200000000000000000000000000000000000A0
:103030000000000000000000000000000000FE7F13
:1030400000000000000000000000FE7F0000000003
:103050000000000000000000000000000000000070
:103060000000000000000000000000000000000060
:103070000400080010002000400080000001000251
:103080000004000800100010000800040002000105
:103090008000400020001000080004000000000034
:1030A0000000000000000000000000000000000020
:1030B000C0073018183008600C601C601C601C6071
:1030C00000300018000E00030001000100010001A3
:1030D000000000008001C003C00380010000000068
:1030E00000000000000000000000000000000000E0
:1030F000C0076008301018200C2B8C4D844CC64C37
:10310000C644664466446644664666266626641778
:10311000CC0C0C40082018303018C007000000000C
:10312000000000000000000000000000000000009F
:10313000C001C001C001C0012003200320032003FF
:1031400030021006100610061004F80F080C080CC8
:10315000080C04180418041806381F7C000000002E
:10316000000000000000000000000000000000005F
:10317000FE07181C1818183018301830183018307E
:103180001818180CF807181818301820186018604C
:1031900018601860186018301818FE0F0000000042
:1031A000000000000000000000000000000000001F
:1031B000C0076038103018600C400C400C0006004E
:1031C00006000600060006000600060006000600CF
:1031D0000C400C40082018103008C0070000000008
:1031E00000000000000000000000000000000000DF
:1031F000FE03180E181818101830183018601860D0
:10320000186018601860186018601860186018203E
:1032100018301830181818181806FE03000000009F
:10322000000000000000000000000000000000009E
:10323000FE3F1830182018401840180018001808D1
:103240001808180CF80F180C18081808180018009F
:1032500018001840184018201830FE3F00000000E9
:10326000000000000000000000000000000000005E
:10327000FE3F183818201840184018001800180889
:103280001808180CF80F180C180818081808180057
:10329000180018001800180018007E000000000038
:1032A000000000000000000000000000000000001E
:1032B000C003300C100818180C100C100400060085
:1032C0000600060006000600067E0618061804180A
:1032D0000C180C18081818183004E003000000003F
:1032E00000000000000000000000000000000000DE
:1032F0003FFC0C300C300C300C300C300C300C30EF
:103300000C300C30FC3F0C300C300C300C300C30DE
:103310000C300C300C300C300C303FFC0000000046
:10332000000000000000000000000000000000009D
:10333000F81F8001800180018001800180018001EF
:103340008001800180018001800180018001800175
:1033500080018001800180018001F81F00000000D1
:10336000000000000000000000000000000000005D
:10337000E07F0006000600060006000600060006C4
:10338000000600060006000600060006000600060D
:103390000006000600060006000600060E060E03E4
:1033A0008E01FC0000000000000000000000000092
:1033B0007E3E180C1804180618021801180198000F
:1033C0009800D800B801B8011803180318061806A9
:1033D000180C180C180C181818187E7C0000000027
:1033E00000000000000000000000000000000000DD
:1033F0007E001800180018001800180018001800A7
:1034000018001800180018001800180018001800FC
:1034100018001840184018201830FE3F0000000027
:10342000000000000000000000000000000000009C
:103430000FF01C381C381C381C381C34343434341D
:10344000343434323432643264326432643144317C
:10345000C431C431C430C43084308FFC000000005B
:10346000000000000000000000000000000000005C
:103470000FF81C201C203420342064206420C42039
:10348000C420842184210423042304260426042C3C
:10349000042C04380438043004301F2000000000DD
:1034A000000000000000000000000000000000001C
:1034B000C003300C181808100C300C3006200660C1
:1034C00006600660066006600660066006600460CE
:1034D0000C300C3008101818300CC003000000002D
:1034E00000000000000000000000000000000000DC
:1034F000FE0F1818183018601860186018601860EF
:10350000186018301818F80718001800180018006C
:10351000180018001800180018007E0000000000B5
:10352000000000000000000000000000000000009B
:10353000C003300C181808100C300C300660066000
:10354000066006600660066006600660066006604B
:10355000E4211C331C36181E300EC007004C003C02
:103560000038000000000000000000000000000023
:10357000FE07181C1818183018301830183018307A
:103580001818180CF8071803180318061806180658
:10359000180C180C180C181818187E780000000069
:1035A000000000000000000000000000000000001B
:1035B000F013181E0C1806180610061006000E0050
:1035C0003C00F800E003800F001E001800380230B5
:1035D0000230063004300C181C0CE4070000000018
:1035E00000000000000000000000000000000000DB
:1035F000FC3F8C21846182418241800180018001F5
:1036000080018001800180018001800180018001B2
:1036100080018001800180018001E007000000003E
:10362000000000000000000000000000000000009A
:103630003F7C0C100C100C100C100C100C100C100B
:103640000C100C100C100C100C100C100C100C109A
:103650000C100C100C1018083804E00300000000D7
:10366000000000000000000000000000000000005A
:103670003E7818301810181018103008300830082C
:10368000300830046004600460046002C002C002BC
:10369000C002C001800180018000800000000000A5
:1036A000000000000000000000000000000000001A
:1036B000CFF386618621842104210C238C238C2363
:1036C0008C138C138813481258165816580E380E3F
:1036D000300E300E300C30041004100400000000D6
:1036E00000000000000000000000000000000000DA
:1036F0003E7C181018083008300460046002C002D4
:10370000C001800180018001800340034006200643
:10371000200E100C100C181808383E7C0000000019
:103720000000000000000000000000000000000099
:103730007E7C1C1018101808300830083004600413
:103740006004C002C002C0018001800180018001CC
:1037500080018001800180018001E00700000000FD
:103760000000000000000000000000000000000059
:10377000F87F383018300C180418000C00060006CA
:103780000003000380018001C000C00060006000F1
:103790003000184018600C200C38FE3F000000007C
:1037A00000000000000000000000C03FC000C0009A
:1037B000C000C000C000C000C000C000C000C00009
:1037C000C000C000C000C000C000C000C000C000F9
:1037D000C000C000C000C000C000C000C000C03FAA
:1037E00000000000000000000000000000001800C1
:1037F0001800100030002000600060004000C00091
:103800008000800180010001000300020006000624
:10381000000C000C000C00180018003000300030C4
:1038200000600000000000000000FC030003000333
:103830000003000300030003000300030003000370
:103840000003000300030003000300030003000360
:103850000003000300030003000300030003FC0354
:103860000000000000000000C003C0076004100852
:103870000000000000000000000000000000000048
:103880000000000000000000000000000000000038
:103890000000000000000000000000000000000028
:1038A0000000000000000000000000000000000018
:1038B0000000000000000000000000000000000008
:1038C00000000000000000000000000000000000F8
:1038D00000000000000000000000000000000000E8
:1038E0000000FFFF000000007800C00000010000A1
:1038F00000000000000000000000000000000000C8
:1039000000000000000000000000000000000000B7
:1039100000000000000000000000000000000000A7
:103920000000000000000000000000000000000097
:103930000000000000000000000000000000E007A0
:10394000180C0C180C180C18001CE01B38180C185C
:1039500006180618061806980C9EF871000000005C
:103960000000000000000000000000000000100047
:103970001E001800180018001800180018009807FA
:10398000581C3818383018301830183018301830A3
:103990001830183018103818380CC807000000000C
:1039A0000000000000000000000000000000000017
:1039B0000000000000000000000000000000C00740
:1039C0007008301818180C180C000C000C000C00B3
:1039D0000C000C20182018103008C0070000000050
:1039E00000000000000000000000000000000010C7
:1039F000001E001800180018001800180018E01B1E
:103A0000301C181818180C180C180C180C180C1856
:103A10000C180C180818181C307AE0090000000077
:103A20000000000000000000000000000000000096
:103A30000000000000000000000000000000C003C3
:103A4000300C101818100C300C300C30FC3F0C00EF
:103A50000C000C00182018107018C007000000009F
:103A60000000000000000000000000000000000056
:103A7000003E80618060C060C000C000C000FC1FCC
:103A8000C000C000C000C000C000C000C000C00036
:103A9000C000C000C000C000C000F80F000000005F
:103AA0000000000000000000000000000000000016
:103AB0000000000000000000000000000000C077CF
:103AC000306C10181818181818181018300CF00747
:103AD00018001800F803F01F18380C300C300C30A8
:103AE0001818E007000000000000000000001000AF
:103AF0001E00180018001800180018001800980779
:103B0000580C3818181818181818181818181818E1
:103B1000181818181818181818187E7E00000000B9
:103B20000000000000000000000000000000000095
:103B30008001C00380010000000000000001F801C6
:103B4000800180018001800180018001800180016D
:103B500080018001800180018001F81F00000000C9
:103B60000000000000000000000000000000000055
:103B7000001C001E000C0000000000000008C00F28
:103B8000000C000C000C000C000C000C000C000CD5
:103B9000000C000C000C000C000C000C000C1806B3
:103BA0001802F001000000000000000000001000FA
:103BB0001E00180018001800180018001800183E01
:103BC000180C1804180218019801D801780338035A
:103BD0001806180C180C181818387E7C0000000005
:103BE00000000000000000000000000000000001D4
:103BF000F801800180018001800180018001800145
:103C000080018001800180018001800180018001AC
:103C100080018001800180018001F81F0000000008
:103C20000000000000000000000000000000000094
:103C30000000000000000000000000000400F73C4D
:103C40008E63866186618661866186618661866132
:103C500086618661866186618661CFF3000000001F
:103C60000000000000000000000000000000000054
:103C700000000000000000000000000000009007AD
:103C80005E0C38181818181818181818181818185A
:103C9000181818181818181818187E7E0000000038
:103CA0000000000000000000000000000000000014
:103CB0000000000000000000000000000000C00341
:103CC000300C1018181808300C300C300C300C3038
:103CD0000C300C3018181818300CC003000000000D
:103CE00000000000000000000000000000000000D4
:103CF000000000000000000000000000000090072D
:103D00005E0C381818101830183018301830183069
:103D10001830183018183818780C98071800180040
:103D200018007E00000000000000000000000000FD
:103D30000000000000000000000000000000C013B0
:103D4000301E181C18180C180C180C180C180C180D
:103D50000C180C180818181C301EE0190018001850
:103D60000018007E000000000000000000000000BD
:103D700000000000000000000000000000006038AB
:103D80007E666061E001E00060006000600060004D
:103D900060006000600060006000FE07000000003E
:103DA0000000000000000000000000000000000013
:103DB0000000000000000000000000000000C0271C
:103DC00060383030302030207000E003800F001E5B
:103DD00000380830083018303818C80F00000000CC
:103DE00000000000000000000000000000000000D3
:103DF00000000000800080008000C000E000FC1F88
:103E0000C000C000C000C000C000C000C000C000B2
:103E1000C000C000C020C0208011000F00000000C2
:103E20000000000000000000000000000000000092
:103E300000000000000000000000000010101E1E26
:103E400018181818181818181818181818181818F2
:103E5000181818181818181C307AE009000000000B
:103E60000000000000000000000000000000000052
:103E700000000000000000000000000000003E7C88
:103E80001830181018183008300820046004600436
:103E9000C002C002C0038001800180000000000059
:103EA0000000000000000000000000000000000012
:103EB0000000000000000000000000000000DFF330
:103EC000866184218C218C218C13881358135812FD
:103ED000580E700E300E300C30042004000000002C
:103EE00000000000000000000000000000000000D2
:103EF00000000000000000000000000000007C3E08
:103F0000300870086004C002C00280018001800394
:103F100040062006200C101818183E7E00000000F5
:103F20000000000000000000000000000000000091
:103F300000000000000000000000000000003E7CC7
:103F400018181808100830082004600460044002A3
:103F5000C00280028001800180008000800040005B
:103F60007C003C0000000000000000000000000099
:103F70000000000000000000000000000000FC1F26
:103F80000C1C0C0C0406040700038001C001C000D7
:103F900060007020302018300C18FC1F000000005A
:103FA00000000000000000000030000800040004D1
:103FB00000040004000400040004000400040004E1
:103FC0000004000380010002000400040004000457
:103FD00000040004000400040004000400040008BD
:103FE000003000000001000100010001000100019B
:103FF00000010001000100010001000100010001B9
:1040000000010001000100010001000100010001A8
:104010000001000100010001000100010001000198
:1040200000010001000000001800200040004000D6
:104030004000400040004000400040004000400080
:10404000400080010003800040004000400040002C
:104050004000400040004000400040004000200080
:104060001800000000007800C400824102410027CF
:10407000001C000000000000000000000000000024
:104080000000000000000000000000000000000030
:104090000000000000000000000000000000000020
:1040A0000000000000000000000000000000000010
:1040B0000000000000000000000000000000000000
:1040C00000000000000000000000000000000000F0
:1040D0000000000000000000000000006000600020
:1040E0006000600060006000600040002000200070
:1040F0002000000000000000600060006000000080
:104100000000000000000000600660063003980117
:1041100088004400000000000000000000000000D3
:10412000000000000000000000000000000000008F
:10413000000000000000000000000000100210025B
:1041400010021002FE07FE0708020801080108011C
:104150000801FE07FE070401040104010401000038
:104160000000000000000000000040004000F001DE
:1041700058034C03CC034C0058007000E000C00111
:10418000C00140034C035C034C034801F0004000B5
:104190004000000000000000000000000E010A01C5
:1041A000910091009100510051003A00AE03A0022D
:1041B0005004500448044804480484028403000066
:1041C00000000000000000000000000038006C004B
:1041D0006C006C006C006C002C0098071C011A012C
:1041E000330133016301E300C308C6093C07000043
:1041F00000000000000000000C001C001000100077
:1042000008000400000000000000000000000000A2
:10421000000000000000000000000000000000009E
:104220000000000000000000000400020001800007
:1042300080004000400020002000200020002000DE
:1042400020002000400040008000800000010002AB
:10425000000400000000000002000400080010003C
:1042600010002000200040004000400040004000BE
:104270004000400020002000100010000800040052
:10428000020000000000000000000000000000002C
:104290004000C0004000460C4E0FD001F0015E0F00
:1042A000460C4000400040000000000000000000FC
:1042B00000000000000000000000000000000000FE
:1042C000000040004000400040004000FE0F400061
:1042D00040004000400040000000000000000000DE
:1042E00000000000000000000000000000000000CE
:1042F00000000000000000000000000000000000BE
:1043000000000000000000000C001C001000100065
:104310000800040000000000000000000000000091
:10432000000000000000000000000000FE07000088
:10433000000000000000000000000000000000007D
:10434000000000000000000000000000000000006D
:10435000000000000000000000000000000000005D
:1043600000000000000000001C001C001C000000F9
:10437000000000000000000000040006000200032E
:10438000000100018000800040004000600020002B
:10439000200010001000080008000C0004000600B7
:1043A0000200000000000000000000000000F0001B
:1043B00098010C030C03060606060606060606060A
:1043C0000606060606060C030C039801F000000022
:1043D000000000000000000000000000000040009D
:1043E0007C006000600060006000600060006000B1
:1043F000600060006000600060006000FC0300007E
:104400000000000000000000000000000000F800B4
:104410008401020306030603000300018001C000BB
:10442000600020001000080204020602FE030000E3
:104430000000000000000000000000000000780004
:10444000C6008601860180018001C00070008001E5
:10445000000100030003060306038601F8000000C4
:1044600000000000000000000000000000008001CB
:104470008001C001A001A001900188018801840190
:104480008201FE0F8001800180018001E0070000B1
:104490000000000000000000000000000000FC031D
:1044A00004000400040004000400F4008C01040370
:1044B000000300030603060382018401F8000000E4
:1044C0000000000000000000000000000000E0010B
:1044D00018030C030C0004000600E60116030E0688
:1044E00006060606060604060C021803F000000085
:1044F0000000000000000000000000000000F807BD
:104500000C0604020401000100018000800040004C
:10451000400040006000600060006000600000003B
:104520000000000000000000000000000000F80192
:104530000C030606060606060C021C03F000C80162
:104540000C0306060606060606060C03F00100002C
:104550000000000000000000000000000000F0006B
:104560000C010C03060206060606060606078C0664
:1045700078060006000300030C018C01780000009F
:10458000000000000000000000000000000000002B
:104590000000000000000000E000E000E00000007B
:1045A0000000000000000000E000E000E00000006B
:1045B00000000000000000000000000000000000FB
:1045C000000000000000000060006000000000002B
:1045D00000000000000000000000600060004000DB
:1045E0002000200000000000000000000004000285
:1045F00000018000400020001000080004000800B6
:1046000010002000400080000001000200040000B3
:10461000000000000000000000000000000000009A
:104620000000000000000000FE0700000000000085
:10463000FE07000000000000000000000000000075
:10464000000000000000000000000000040008005E
:104650001000200040008000000100020004000261
:10466000000180004000200010000800040000004D
:104670000000000000000000000000000000E00357
:104680001806040C040C0C0C0C0C000780014000F4
:104690004000400000000000E000E000E0000000FA
:1046A000000000000000000000000000E00018030F
:1046B0000C02CC0564056605A605B604B604B6046E
:1046C000B604B602E4010C040C021803F00000006A
:1046D000000000000000000000000000000060007A
:1046E00060005000D0009000900088008801080110
:1046F000F801040304030402020202060F0F000083
:104700000000000000000000000000000000FE00AB
:104710008C030C030C030C030C038C01FC000C0336
:104720000C020C060C060C060C060C03FE01000025
:104730000000000000000000000000000000E00396
:1047400018030C060C04040406000600060006000C
:104750000600060006040C040C021803F00000001A
:1047600000000000000000000000000000007F00CA
:104770008C010C030C030C060C060C060C060C0634
:104780000C060C060C060C030C038C017F000000C9
:104790000000000000000000000000000000FF0317
:1047A000060306040604060086008600FE00860056
:1047B000860086000600060406040602FF030000C9
:1047C0000000000000000000000000000000FF03E7
:1047D000060306040604060086008600FE00860026
:1047E0008600860006000600060006001F00000086
:1047F0000000000000000000000000000000F000C9
:1048000018010C020C020402060006000600060055
:10481000C60F060306030C030C031803F000000088
:1048200000000000000000000000000000000F0F6A
:10483000060606060606060606060606FE0706061F
:104840000606060606060606060606060F0F000002
:104850000000000000000000000000000000FC0359
:104860006000600060006000600060006000600048
:10487000600060006000600060006000FC030000F9
:104880000000000000000000000000000000F80729
:10489000C000C000C000C000C000C000C000C00018
:1048A000C000C000C000C000C000C000C000C60002
:1048B00066003C0000000000000000000000CF0384
:1048C0008601C60046002600160036002E006E0047
:1048D0004600C60086008601060106038F07000019
:1048E00000000000000000000000000000001F00A9
:1048F0000600060006000600060006000600060088
:10490000060006000600060406040602FF03000077
:104910000000000000000000000000000000070789
:10492000860386038E038E034E034E034A035A0307
:104930005A033A033203320332031203870700009B
:1049400000000000000000000000000000008E0FCA
:104950000C021C021C02340234026402640244028F
:10496000C402840284038403040304031F020000BE
:104970000000000000000000000000000000F00047
:1049800098010C030C020606060606060606060635
:104990000606060606060C020C039801F00000004D
:1049A0000000000000000000000000000000FF0008
:1049B0000603060606060606060606068603FE002B
:1049C0000600060006000600060006001F000000A4
:1049D0000000000000000000000000000000F000E7
:1049E00098010C030C0206060606060606060606D5
:1049F0000606060676064C02CC039801F0008007F6
:104A00000003000000000000000000000000FF01A3
:104A1000060306060606060606060603FE00460010
:104A2000C600860086010603060306060F0E000078
:104A30000000000000000000000000000000F8027C
:104A40000C030602060206000E003C00F800E0031C
:104A5000800300070206020606060C03F0010000B0
:104A60000000000000000000000000000000FE0741
:104A7000620461086108600060006000600060001E
:104A8000600060006000600060006000F8010000ED
:104A900000000000000000000000000000001E07F1
:104AA0000C020C020C020C020C020C020C020C0296
:104AB0000C020C020C020C020C021801F0000000A7
:104AC00000000000000000000000000000000F07D0
:104AD0000602040104010C010C0188008800980002
:104AE00098005000500070003000200020000000AE
:104AF0000000000000000000000000000000F70EB1
:104B0000620442044604460464026402E402E402CD
:104B10009C029C019801980188018800880000008F
:104B200000000000000000000000000000009E07E0
:104B30000C01080118019000B00060002000600026
:104B40006000D00090008801080104038E07000077
:104B500000000000000000000000000000000F0F37
:104B6000060404020C0208011801B800B00070002D
:104B7000600060006000600060006000F8010000FC
:104B80000000000000000000000000000000FC0722
:104B90000C0206030201800180004000400020005A
:104BA00020001000180008040C040402FE0300009A
:104BB0000000000000000000E003200020002000B2
:104BC00020002000200020002000200020002000E5
:104BD00020002000200020002000200020002000D5
:104BE000E0030000000000000000000004000400DA
:104BF00008000800100010001000200020004000F5
:104C00004000C0008000800000010001000200029E
:104C100000020004000000007C0040004000400052
:104C20004000400040004000400040004000400084
:104C30004000400040004000400040004000400074
:104C40007C000000000060009000080100000000EF
:104C50000000000000000000000000000000000054
:104C60000000000000000000000000000000000044
:104C70000000000000000000000000000000000034
:104C80000000000000000000000000000000000024
:104C90000000000000000000000000000000000014
:104CA0000000FF0F0000000018006000000000007E
:104CB00000000000000000000000000000000000F4
:104CC00000000000000000000000000000000000E4
:104CD00000000000000000000000000000000000D4
:104CE0000000000000000000F0010C030C030003B2
:104CF000E0031C030E03060306038E0B7C0E00006C
:104D000000000000000000000000000008000E008D
:104D10000C000C000C000C00CC013C031C060C0623
:104D20000C060C060C060C060C021C03E401000029
:104D30000000000000000000000000000000000073
:104D40000000000000000000F0008C018C018601D2
:104D500006000600060006020C020C01F00000002E
:104D60000000000000000000000000000002C0037E
:104D7000000300030003000378038C030C03060305
:104D8000060306030603060304038C0778010000EC
:104D90000000000000000000000000000000000013
:104DA0000000000000000000E001180308020C06EB
:104DB0000C06FC070C000C0018041802E0010000AF
:104DC0000000000000000000000000000000C00320
:104DD0006006300630003000FE0130003000300048
:104DE000300030003000300030003000FC010000A6
:104DF00000000000000000000000000000000000B3
:104E00000000000000000000F007D8068C018C01B3
:104E10008C019801F8000C00FC00CC03060306038B
:104E20008E03F800000000000000000008000E00E3
:104E30000C000C000C000C00EC011C030C030C0318
:104E40000C030C030C030C030C030C039E07000063
:104E500000000000000000000000000000006000F2
:104E600060000000000040007C0060006000600006
:104E7000600060006000600060006000FC030000F3
:104E80000000000000000000000000000000C00161
:104E9000C001000000000001F001800180018001DC
:104EA00080018001800180018001800180018001FA
:104EB000CC007C00000000000000000008000E0094
:104EC0000C000C000C000C008C038C008C004C00BF
:104ED0006C005C008C008C010C010C039E07000030
:104EE00000000000000000000000000040007C0006
:104EF00060006000600060006000600060006000B2
:104F0000600060006000600060006000FC03000062
:104F10000000000000000000000000000000000091
:104F200000000000000000003707EE066606660677
:104F3000660666066606660666066606FF0F0000DB
:104F40000000000000000000000000000000000061
:104F50000000000000000000EE011C030C030C0325
:104F60000C030C030C030C030C030C039E07000042
:104F70000000000000000000000000000000000031
:104F80000000000000000000F00098010C0306067D
:104F900006060606060606060C030C03F0000000D3
:104FA0000000000000000000000000000000000001
:104FB0000000000000000000EE011C030C060C06BF
:104FC0000C060C060C060C060C031C03EC010C0072
:104FD0000C003E0000000000000000000000000087
:104FE000000000000000000078028C030C030603A0
:104FF000060306030603060304038C037803000379
:105000000003C007000000000000000000000000D6
:1050100000000000000000009F035806380618003A
:10502000180018001800180018001800FF000000F1
:105030000000000000000000000000000000000070
:105040000000000000000000F0031C030C020C0232
:105050003800F000C003040304038C03FC010000CB
:105060000000000000000000000000000000000040
:105070002000200030003000FE0130003000300001
:10508000300030003000300030023002E00100001B
:105090000000000000000000000000000000000010
:1050A00000000000000008028E030C030C030C0338
:1050B0000C030C030C030C030C039C077801000089
:1050C00000000000000000000000000000000000E0
:1050D00000000000000000001E070C02080108018B
:1050E00018019000B000B0006000600020000000D7
:1050F00000000000000000000000000000000000B0
:105100000000000000000000F70E62044604640284
:105110006402EC029C0198019801980108000000CB
:10512000000000000000000000000000000000007F
:105130000000000000000000BC0718011001B000D2
:1051400060006000E0009000080108039E07000076
:10515000000000000000000000000000000000004F
:1051600000000000000000009E070801080108017F
:1051700090009000B00060006000600020002000FF
:1051800024001C00000000000000000000000000DF
:105190000000000000000000FC018401C400440085
:1051A000600020003000180208020C03FC0100001F
:1051B000000000000000000000038000800080006C
:1051C00080008000800080008000400020004000BF
:1051D00080008000800080008000800080008000CF
:1051E000000300004000400040004000400040003C
:1051F00040004000400040004000400040004000AF
:10520000400040004000400040004000400040009E
:1052100040004000000000000C00100010001000D2
:1052200010001000100010001000200040002000AE
:1052300010001000100010001000100010001000EE
:105240000C00000000001C002204C20480030000C7
:10525000000000000000000000000000000000004E
:10526000000000000000000000000000000000003E
:10527000000000000000000000000000000000002E
:10528000000000000000000000000000000000001E
:10529000000000000000000000000000000000000E
:1052A00000003000300030003000300020002000CE
:1052B000200020002000000000003000300000002E
:1052C000000000000000D800D8006C00240012008C
:1052D00000000000000000000000000000000000CE
:1052E00000000000000000000000000000000000BE
:1052F00000000000840084008400FF01840084001A
:10530000C60042004200FF0142004200420000008D
:10531000000000000000000000002000F800240150
:105320002401A401280030006000A00020012C010D
:1053300024012401F80020002000000000000000EB
:1053400000000000860049004900290029001900DA
:10535000D60028012801280124012401C2000000F0
:105360000000000000000000000000000C0012001F
:1053700012001200EA00460046002500290039000C
:1053800011003201CC000000000000000000060007
:105390000600040002000100000000000000000000
:1053A00000000000000000000000000000000000FD
:1053B00000000000000000018000400020002000EC
:1053C000200010001000100010001000100020003D
:1053D00020002000400080000001000000000100CB
:1053E000020004000800080008001000100010006F
:1053F000100010001000080008000800040002005F
:10540000010000000000000000000000000020007B
:1054100020002603AE0370007000AE0326032000B8
:10542000200000000000000000000000000000005C
:105430000000000000001000100010001000FF012C
:10544000100010001000100000000000000000001C
:10545000000000000000000000000000000000004C
:10546000000000000000000000000000000000003C
:105470000000060006000400020001000000000019
:105480000000000000000000000000000000FE031B
:10549000000000000000000000000000000000000C
:1054A00000000000000000000000000000000000FC
:1054B00000000000000000000000000000000000EC
:1054C00000000600060000000000000000000002CE
:1054D0000001000180008000C0004000600020004A
:1054E000300010001800080008000400040002004A
:1054F00000000000000000000000000078008400B0
:105500008400020102010201020102010201020102
:10551000840084007800000000000000000000000B
:105520000000000010001C0010001000100010000F
:105530001000100010001000100010007C0000008F
:105540000000000000000000000000007C0082005D
:10555000020102010201800040002000100008004A
:1055600004010201FE010000000000000000000034
:10557000000000003C0042008200820040007000F9
:105580008000000100010201020182007C00000095
:10559000000000000000000000004000400060002B
:1055A000500048004800440042004200FE01400014
:1055B00040004000F001000000000000000000007A
:1055C00000000000FC01040004000400040074005A
:1055D0008C00000100010201020182007C00000039
:1055E000000000000000000000000000F0000801C2
:1055F0000401040002007A00860002010201020197
:105600000401840078000000000000000000000099
:1056100000000000FE018200420040002000100057
:10562000100008000800080008000800080000003A
:10563000000000000000000000000000780084006E
:1056400002010201020184007800840002010201CB
:10565000020184007800000000000000000000004B
:1056600000000000780084008200020102010201B3
:105670008401780100018000820042003C000000AB
:10568000000000000000000000000000000000001A
:1056900000003000300000000000000000000000AA
:1056A000000030003000000000000000000000009A
:1056B00000000000000000000000000010000000DA
:1056C00000000000000000000000000010001000BA
:1056D00010001000000000000000800040002000CA
:1056E0001000080004000200040008001000200060
:1056F00040008000000000000000000000000000EA
:1057000000000000000000000000FF010000000099
:105710000000FF0100000000000000000000000089
:10572000000000000000000000000200040008006B
:105730001000200040008000400020001000080001
:105740000400020000000000000000000000000053
:1057500000007800840002010601060100018000BB
:105760004000200020002000000030003000000039
:105770000000000000000000000000007800C400ED
:10578000F20159014901450125012501A500D90072
:10579000020184007800000000000000000000000A
:1057A0000000000010001000280028002800280039
:1057B000440044007C00440082008200C7010000D5
:1057C0000000000000000000000000003F00420058
:1057D0004200420022003E0042008200820082001D
:1057E000820042003F0000000000000000000000B6
:1057F00000000000780184010201020101000100A3
:105800000100010001000101020186007800000092
:105810000000000000000000000000003F00C20087
:1058200082000201020102010201020102010201E1
:10583000820042003F000000000000000000000065
:1058400000000000FF0082000201420042007E00D2
:10585000420042000200020002018200FF0000003C
:10586000000000000000000000000000FF008200B7
:105870000201420042007E0042004200020002009B
:10588000020002000700000000000000000000000D
:105890000000000070018801040102010200020002
:1058A000020082030201020104010C01F000000069
:1058B000000000000000000000000000C70182009E
:1058C0008200820082008200FE008200820082004C
:1058D00082008200C70100000000000000000000FC
:1058E00000000000FE00100010001000100010006A
:1058F000100010001000100010001000FE0000004A
:10590000000000000000000000000000FC0120007A
:105910002000200020002000200020002000200087
:1059200020002000210011000E00000000000000F7
:1059300000000000E70142002200220012001A00CD
:10594000160022002200420042008200C70100002F
:10595000000000000000000000000000070002003E
:105960000200020002000200020002000200020027
:1059700002018200FF0000000000000000000000A3
:1059800000000000C701C600C600C600AA00AA00A9
:10599000AA00AA00AA00920092009200D70100007B
:1059A000000000000000000000000000C7018600A9
:1059B0008A008A008A0092009200A200A200C2001F
:1059C000C200C200870000000000000000000000CC
:1059D000000000003800C600820001010101010141
:1059E00001010101010101018200C600380000002F
:1059F0000000000000000000000000007F008200A6
:105A000002010201020182007E0002000200020087
:105A1000020002000700000000000000000000007B
:105A2000000000003800C6008200010101010101F0
:105A30000101010101011901A600A6007800400141
:105A4000C000000000000000000000003F00420015
:105A50008200820042003E0012002200220042002A
:105A600042008200870100000000000000000000EA
:105A700000000000780184010201020002000C0015
:105A80007000800000010201020186007A0000001F
:105A9000000000000000000000000000FE001101F6
:105AA0001101100010001000100010001000100074
:105AB000100010003800000000000000000000008E
:105AC00000000000C7018200820082008200820084
:105AD00082008200820082008200440038000000C0
