:020000040800F2
:1000000070DC0120C10C00085503000857030008EC
:100010005B0300085F0300086303000800000000A2
:10002000000000000000000000000000590200086D
:100030006703000800000000B5020008D10A0008AC
:10004000DB0C0008DB0C0008DB0C0008DB0C0008F4
:10005000DB0C0008DB0C0008DB0C0008DB0C0008E4
:10006000DB0C0008DB0C0008DB0C0008DB0C0008D4
:10007000DB0C0008DB0C0008DB0C0008DB0C0008C4
:10008000DB0C0008DB0C0008DB0C0008DB0C0008B4
:10009000DB0C0008DB0C0008DB0C0008DB0C0008A4
:1000A000DB0C0008DB0C0008DB0C0008DB0C000894
:1000B000DB0C0008DB0C0008DB0C0008DB0C000884
:1000C000DB0C0008DB0C0008DB0C0008DB0C000874
:1000D000DB0C0008350C0008DB0C0008DB0C00080A
:1000E000DB0C0008DB0C0008DB0C0008DB0C000854
:1000F000DB0C0008DB0C0008DB0C0008DB0C000844
:10010000DB0C0008DB0C0008DB0C0008DB0C000833
:10011000DB0C0008DB0C0008DB0C0008DB0C000823
:10012000DB0C0008DB0C0008DB0C0008DB0C000813
:10013000DB0C0008DB0C0008DB0C0008DB0C000803
:10014000DB0C0008DB0C0008DB0C0008DB0C0008F3
:10015000DB0C0008DB0C0008DB0C0008DB0C0008E3
:10016000DB0C0008DB0C0008DB0C0008DB0C0008D3
:10017000DB0C0008DB0C0008DB0C0008DB0C0008C3
:10018000DB0C0008DB0C000800F002F800F055F86A
:100190000AA090E8000C82448344AAF10107DA45E2
:1001A00001D100F04AF8AFF2090EBAE80F0013F0DF
:1001B000010F18BFFB1A43F00103184750790000E4
:1001C00070790000103A24BF78C878C1FAD8520775
:1001D00024BF30C830C144BF04680C6070470000C1
:1001E0000023002400250026103A28BF78C1FBD840
:1001F000520728BF30C148BF0B607047662907F01F
:100200000F84642906F08A81752906F087816329A5
:1002100006F0C985732906F0CE85002070471FB50A
:1002200007F0F9FB06F010FE04000020002107F0A3
:1002300065FBE0601FBD10B510BD06F009FF11465B
:10024000FFF7EDFF00F067F806F027FF03B4FFF7B4
:10025000F2FF03BC00F090FC2C4B19680868B0E872
:10026000F04F80F30988BFF36F8F4FF0000080F3E9
:10027000118870470000000008480068006880F39B
:1002800008884FF0000080F3148862B661B6BFF3AF
:100290004F8FBFF36F8F00DF00BF00BF08ED00E09E
:1002A000DFF80C00016841F470010160704700BF85
:1002B00088ED00E0EFF30980BFF36F8F134B1A68EE
:1002C0001EF0100F08BF20ED108A20E9F04F1060DB
:1002D00009B44FF0500080F31188BFF34F8FBFF384
:1002E0006F8F03F01CFE4FF0000080F3118809BCF3
:1002F00019680868B0E8F04F1EF0100F08BFB0ECA6
:10030000108A80F30988BFF36F8F70476000002068
:10031000EFF30580704710B54FF4407000F0F0FC2B
:10032000A82000F0DDFB4FF4E13000F032FC00F0DB
:100330009FF900F0BDF900F03DFA002001F0EDFE5C
:10034000012001F0EAFE022001F0E7FE00F05BF977
:10035000002010BD704700BFFEE700BFFEE700BFF2
:10036000FEE700BFFEE770470CB50020019000904B
:100370007648006840F480307449086000BF7348D4
:10038000006800F4003000900198401C0190009833
:1003900018B90198B0F5A04FF1D16C48006800F48D
:1003A000003010B10120009001E000200090009882
:1003B000012846D165484030006840F080506349CC
:1003C000403108606248006840F44040604908607D
:1003D0005E48083000685D490831086008460068DA
:1003E00040F4004008600846006840F4A0500860EF
:1003F0005848091F0860081F006840F08070091FF6
:10040000086000BF5148006800F000700028F9D073
:1004100040F20570504908604C480830006820F0F0
:1004200003004A49083108600846006840F00200AD
:10043000086000BF45480830006800F00C0008283C
:10044000F8D10CBD10B54548006840F47000434930
:1004500008603E48006840F001003C490860002008
:100460003A4908310860394800683D490840374931
:1004700008603C48091D0860081F006820F48020BF
:10048000091F0860002031490C310860FFF76CFF3C
:100490004FF0006031498039086010BD70B5002010
:1004A0000022022300240221284D08352D6805F082
:1004B0000C0020B1042806D0082834D107E02A4DCA
:1004C0002A4E356033E02A4D284E35602FE01F4D0F
:1004D0002D1D2D68C5F380541C4D2D1D2D6805F074
:1004E0003F0154B1224DB5FBF1F5184E361D36686B
:1004F000C6F3881605FB06F209E01B4DB5FBF1F5C6
:10050000124E361D3668C6F3881605FB06F20F4DEF
:100510002D1D2D68C5F301456D1C6B00B2FBF3F575
:10052000124E356003E0104D104E356000BF00BF25
:10053000064D08352D68C5F303150E4E705D0B4D45
:100540002D68C540094E356070BD0000003802407E
:100550000070004008544007003C024088ED00E075
:10056000FFFFF6FE103000240024F40000000020FD
:1005700000127A00040000202DED048B9FED290A63
:10058000B0EE408A14E09FED280A38EE000AB0EE83
:10059000408A18EE100A07F0CDF941EC190B53EC24
:1005A000192B22A005F070FF4FF47A7003F06AFB5C
:1005B000E9E706E022A005F067FF4FF47A7003F048
:1005C00061FBF7E71CB5044605F0A9FE1E480221B1
:1005D00000238022CDE900101CA1AFF2290003F016
:1005E0003DF81C48032100238022CDE900101AA108
:1005F000AFF27B0003F032F81948006803F07FF88F
:1006000005F0B0FE1CBD1CB5154801210023802259
:10061000CDE9001013A1AFF2530003F01FF803F06F
:1006200052FE1CBD000000000AD7233C666C6F61BF
:10063000745F6E756D3A2025302E34660D0A000009
:100640006E756D6265720000180000207461736B36
:10065000310000001C0000207461736B3200000048
:100660001400002073746172745F7461736B000016
:100670001CB50121202001F0BBF94FF4C0600090AF
:1006800001208DF8040000208DF8060003208DF86D
:10069000050001208DF807006946044800F026FC9B
:1006A0004FF4C061014800F09DFC1CBD00140240E5
:1006B0001CB50121112001F09BF91C2000900020A5
:1006C0008DF8040003208DF8050001208DF8070047
:1006D0006946354800F00AFC0120009002208DF8A0
:1006E00007006946314800F001FC1CBD10B5044606
:1006F00014B101202E4908702D480078002837D009
:100700001021294800F054FC78B10821264800F057
:100710004FFC50B10421244800F04AFC28B10121CB
:10072000224800F045FC012822D10A2000F015FAE9
:1007300000201F49087010211B4800F039FC08B93F
:10074000012010BD0821184800F032FC08B9022031
:10075000F7E70421144800F02BFC08B90320F0E768
:100760000121124800F024FC01281BD10420E8E7F5
:1007700010210D4800F01CFC012813D108210A4863
:1007800000F016FC01280DD10421074800F010FCF0
:10079000012807D10121054800F00AFC10B9012009
:1007A000034908700020CCE700100240000002401E
:1007B0002000002000B599B001217A2001F018F93D
:1007C0000121084601F04CF94FF400401790012038
:1007D0008DF8600000208DF8620002208DF8610025
:1007E00001208DF8630017A9B44800F07FFB4FF695
:1007F0003370179002208DF8600000208DF86200A1
:1008000003208DF8610001208DF8630017A9AC4822
:1008100000F06CFB4FF68370179002208DF860009B
:1008200000208DF8620003208DF8610001208DF812
:10083000630017A9A34800F059FB4FF23F0017903F
:1008400002208DF8600000208DF8620003208DF8F2
:10085000610001208DF8630017A99B4800F046FB5A
:1008600040F23F40179002208DF8600000208DF884
:10087000620003208DF8610001208DF8630017A944
:10088000924800F033FB0C2200218D4800F0B9FBA8
:100890000C2201218A4800F0B4FB0C220421884874
:1008A00000F0AFFB0C220521854800F0AAFB0C22CA
:1008B0000821834800F0A5FB0C220921804800F0A4
:1008C000A0FB0C220A217E4800F09BFB0C220B218E
:1008D0007B4800F096FB0C221146794800F091FB12
:1008E0000C220D21764800F08CFB0C220E2174485E
:1008F00000F087FB0C220F21714800F082FB0C22D4
:100900000021704800F07DFB0C2201216D4800F0B1
:1009100078FB0C2207216B4800F073FB0C220821A6
:10092000684800F06EFB0C220921664800F069FB64
:100930000C220A21634800F064FB0C220B21614861
:1009400000F05FFB0C2211465E4800F05AFB0C22BF
:100950000D215C4800F055FB0C220E21594800F097
:1009600050FB0C220F21574800F04BFB0C220021BA
:10097000554800F046FB0C220121534800F041FB92
:100980000C220221504800F03CFB0C2203214E486F
:1009900000F037FB0C2204214B4800F032FB0C2204
:1009A0000521494800F02DFB0C221146464800F075
:1009B00028FB0C220D21444800F023FB0C220E21C1
:1009C000414800F01EFB0C220F213F4800F019FBAC
:1009D0000C2200213D4800F014FB0C2201213B4871
:1009E00000F00FFB0C220221384800F00AFB0C2219
:1009F0000321364800F005FB0C220421334800F0A7
:100A000000FB0C220521314800F0FBFA0C220A21E0
:100A10002E4800F0F6FA0020019002900820039082
:100A20000020049005900690079004200890002074
:100A300009900A9010200B9000200C900E900D90C1
:100A40000F9010904FF4805011900020129013904E
:100A5000149001A81590169008A800F026FB01211B
:100A6000042000F0ADFB19B000BD10B506E004781D
:100A70004FF0D0435C54491C401C521E002AF6D152
:100A800010BD06E04FF0D0435B5C00F8013B491C11
:100A9000521E002AF6D1704713B5044601222146A2
:100AA00001A8FFF7E2FF1CBD18B50446012221464C
:100AB0006846FFF7E6FF9DF8000018BD00040240FD
:100AC000000C0240001002400014024000180240D6
:100AD00010B504F0A1F8012801D005F05BFC10BDB1
:100AE00070B504466FF0040000F05CF92148047012
:100AF00025464FF47A7045434FF0E020006940F0FE
:100B000002004FF0E021086108464561006940F0AD
:100B10000100086170BD70B5034600224FF0E02669
:100B20007569144E367803FB06F44FF0E026B16980
:100B300010E04FF0E026B06988420BD0884202D224
:100B40000E1A324402E02E1A0E4432440146A242EA
:100B500000D300E0EDE700BF70BD30B504460025CE
:100B600004E04FF47A70FFF7D6FF6D1CA542F8D36E
:100B700030BD00002100002000BF704700BF4C4A7C
:100B8000128802F04002002AF9D0C2B2484B9A8083
:100B9000704710B588B004460121022000F028FFFC
:100BA0000121102000F07EFF07220621414800F0BD
:100BB00028FA072206213F4800F023FAC0200690B9
:100BC00002208DF81C008DF81D0000208DF81E00FD
:100BD00001208DF81F0006A9364800F087F902941D
:100BE0000020ADF80C00ADF80E00ADF81000ADF827
:100BF00014000C20ADF8120002A92D4801F0B3F842
:100C000001212B4801F037F9012240F225512848F3
:100C100001F0E7F925208DF8040003208DF8050088
:100C20008DF8060001208DF8070001A800F06DF88E
:100C300008B010BD10B540F225511D4801F00CFA66
:100C400010B31B4801F046F9C4B21B48008800F4F9
:100C50000040C8B91848008800F4804060B10A2CF0
:100C600003D000201449088020E01348008840F495
:100C700000401149088019E00D2C06D10E4800886B
:100C800040F480400C49088010E00B480088C0F315
:100C90000D000A490C5408480088401C0649088089
:100CA00008460088C72801DD0020088010BD00002C
:100CB000001001400004024028000020DC00002059
:100CC0000948804709480047FEE7FEE7FEE7FEE7E0
:100CD000FEE7FEE7FEE7FEE7FEE7FEE7044805491C
:100CE000054A064B704700004504000889010008CA
:100CF00070D6012070DC012070D8012070D801204E
:100D000032490143324A1160704770B50021002317
:100D10000F22C4781CB32E4C246804F4E064C4F59C
:100D2000E064C4F30721C1F10404E3B20A4144784A
:100D30009C40E1B28478144021430C07210E254CDD
:100D400005786155047804F01F050124AC4005784E
:100D50006D11AD0005F1E025C5F8004109E004780A
:100D600004F01F050124AC401B4D0678761145F8B0
:100D7000264070BD194A0A400243154B1B1F1A60DA
:100D8000704739B1124A121D12680243104B1B1DE5
:100D90001A6006E00E4A121D126882430C4B1B1D9E
:100DA0001A607047042808D14FF0E021096941F02A
:100DB00004014FF0E022116107E04FF0E0210969E2
:100DC00021F004014FF0E022116170470000FA05A4
:100DD0000CED00E000E400E080E100E080FFFF1F98
:100DE00010B504469848844208D10121084600F015
:100DF0006AFE0021012000F066FE76E093488442FE
:100E000008D10121022000F05EFE0021022000F046
:100E10005AFE6AE08E48844208D10121042000F085
:100E200052FE0021042000F04EFE5EE0894884421C
:100E300008D10121082000F046FE0021082000F022
:100E400042FE52E08448844208D10121102000F083
:100E50003AFE0021102000F036FE46E07F48844232
:100E600008D10121202000F02EFE0021202000F0DA
:100E70002AFE3AE07A48844208D10121402000F05D
:100E800022FE0021402000F01EFE2EE07548844224
:100E900008D10121802000F016FE0021802000F002
:100EA00012FE22E07048844208D10121801500F032
:100EB0000AFE0021A01500F006FE16E06B488442F1
:100EC00008D10121401500F0FEFD0021601500F061
:100ED000FAFD0AE06648844207D10121001500F0BE
:100EE000F2FD0021201500F0EEFD10BDF0B50A4620
:100EF00000210023002400BF3DE0012505FA01F395
:100F0000156805EA03049C4234D105684F000326A6
:100F1000BE40B543056015794E00B54006683543BF
:100F200005601579012D02D01579022D16D185683D
:100F30004F000326BE40B543856055794E00B5404D
:100F4000866835438560456801268E40B543456017
:100F5000456896798E40B6B235434560C5684F0006
:100F60000326BE40B543C560D5794E00B540C6687E
:100F70003543C560491C1029BFD3F0BD4FF6FF7142
:100F800001600021017141718171C171704708B523
:100F90004FF480320092009A0A430092009AC26194
:100FA000C161009AC261C2690092C269009208BD23
:100FB0000246002013690B400BB1012000E0002025
:100FC00070470146086980B27047024600205369A5
:100FD0000B400BB1012000E000207047014648693A
:100FE00080B2704701837047418370470AB1018323
:100FF00000E0418370474161704742694A40426165
:101000007047F0B5002300244D07ED0E02FA05F3FA
:10101000CE1000F1200555F826504E07F70E0F268A
:10102000BE40B543CF1000F1200646F82750CE1041
:1010300000F1200555F8265045EA0304CE1000F1D2
:10104000200545F82640F0BD0000024000040240A3
:1010500000080240000C0240001002400014024050
:1010600000180240001C0240002002400024024000
:101070000028024030B943F2DB028100A1F1C041F7
:101080000A6005E043F2D2028100A1F1C0410A608A
:101090006FF07042411C8900A1F1C0410A608100DB
:1010A000A1F1C041C1F804217047D0E901121143F8
:1010B000C2681143026911434269114382691143B5
:1010C000C2691143026A1143426A1143826A1143A1
:1010D000C26A1143026B114302689200A2F1C0423E
:1010E0001160816808290BD101688900A1F1C04114
:1010F000096841F0400201688900A1F1C0410A601D
:10110000416B0968426B526841EA0211426B926876
:1011100041EA0221426B928941EA0241426B128A02
:1011200041EA0251426B127D41EA0261426B9269CF
:1011300011430268521C9200A2F1C0421160C16AC0
:10114000B1F5804F1BD1816B0968826B526841EA0F
:101150000211826B926841EA0221826B128A41EA93
:101160000251826B127D41EA0261826B92691143E6
:1011700002689200A2F1C042C2F8041107E06FF0C9
:10118000704201688900A1F1C041C1F80421704793
:10119000002101600221416000218160C160016184
:1011A00041618161C16101624FF480514162490036
:1011B00081620021C1620163F84941638163704724
:1011C00051B18200A2F1C042126842F001038200D4
:1011D000A2F1C042136009E08200A2F1C04212688D
:1011E000EF4B1A408300A3F1C0431A6070471028E8
:1011F0000AD118214FF020421166402151664FF06C
:10120000FC319166D16610E01821E64A1160402158
:101210004FF02042C2F884104FF0FC31E14A08320E
:1012200011604FF02042C2F88C10704730B5002199
:1012300000220023446844F0080485682C43C568F4
:101240002C4305692C43456944EA4524856944EAF1
:101250004531C4692468C5696D6844EA0524C569D7
:101260002D8944EA0544C5692D7B44EA0562046A78
:101270002468056A6D6844EA0524056A2D8944EAF4
:101280000544056A2D7B44EA05630468102C05D1EA
:101290004FF020442166A266E36608E0C14C21605D
:1012A0004FF02044C4F88820BE4C0C34236030BD7D
:1012B00010210160002141608160C16001614161D4
:1012C0008161FC21C2691160C2695160C26991608B
:1012D000C269D160026A1160026A5160026A91605B
:1012E000026AD160704799B1102808D14FF02042AE
:1012F000126E42F004024FF020431A661DE0A94A24
:10130000126842F004024FF02043C3F8802014E03A
:10131000102809D14FF02042126EA14BDB1E1A405B
:101320004FF020431A6608E09E4A12689C4BDB1E71
:101330001A404FF02043C3F88020704799B110281D
:1013400008D14FF02042126E42F040024FF020438D
:101350001A661DE0934A126842F040024FF02043A3
:10136000C3F8802014E0102809D14FF02042126EFB
:101370008B4B3F3B1A404FF020431A6608E0894AE6
:101380001268874B3F3B1A404FF02043C3F8802040
:10139000704701460020102903D14FF02042506FC2
:1013A00002E0804A14321068704718207D492031CD
:1013B000086000200906C1F8A4004FF0FC3079490C
:1013C00028310860091D0860091D08607047016820
:1013D00041F01001426841EA4221826841EA42310B
:1013E000704A20321160C1680968C268526841EAD7
:1013F0000221C268128941EA0241C268127B41EAB5
:101400000261684A283211600169096802695268FC
:1014100041EA02210269128941EA02410269127B12
:1014200041EA02615F4A2C321160416909684269F0
:10143000526841EA02214269128941EA0241426945
:10144000127B41EA02614FF02042C2F8B0107047AF
:101450000021016041608160FC21C2681160C268A6
:101460005160C2689160C268D1600269116002690E
:101470005160026991600269D160426911604269FC
:101480005160426991604269D160704748B14549F5
:101490002031096841F004014FF02042C2F8A01049
:1014A00009E04049203109683D4AD21E11404FF001
:1014B0002042C2F8A010704710B5F2B1102807D131
:1014C0004FF020435B6E0B434FF02044636632E0E5
:1014D000B0F5807F08D1334B1B1D1B680B434FF0C9
:1014E0002044C4F8843026E02E4B24331B680B4381
:1014F0004FF02044C4F8A4301DE0102807D14FF06D
:1015000020435B6E8B434FF02044636613E0B0F5DD
:10151000807F08D1234B1B1D1B688B434FF0204459
:10152000C4F8843007E01F4B24331B688B434FF013
:101530002044C4F8A43010BD10B50246002000239A
:10154000102A03D14FF02044636E09E0B2F5807F8A
:1015500003D1144C241D236802E0124C2434236868
:1015600003EA01040CB1012000E0002010BD1028A6
:1015700007D14FF02042526E8A434FF020435A6603
:1015800019E0B0F5807F0FD1064A121D12688A4318
:101590004FF02043C3F884200DE00000247A0008B7
:1015A000FEFF0F00800000A0234A12688A434FF01C
:1015B0002043C3F8A420704770B5024600200023E2
:1015C00000240025102A03D14FF02046736E08E056
:1015D000B2F5807F03D1184E203E336801E0164EED
:1015E000336803EA010403EAD10514B10DB1012007
:1015F00000E0002070BD102808D14FF02042526E4C
:1016000022EAD1024FF020435A6614E0B0F5807F01
:1016100009D1094A203A126822EAD1024FF0204348
:10162000C3F8842007E0044A126822EAD1024FF08E
:101630002043C3F8A4207047A40000A0F948006824
:1016400040F00100F74908600020F64908310860C1
:10165000F4480068F4490840F2490860F348091D5D
:101660000860F348EF4984310860F0481038091DDC
:101670000860EC48006820F48020EA4908600020F7
:10168000E8490C310860E7498C3108607047002157
:10169000E44A921C117011460870704710B501465B
:1016A0000022002300204A11012A02D1DD4C2368C8
:1016B00008E0022A03D1DB4C7034236802E0D94CE5
:1016C0007434236801F01F02012494401C400CB1C3
:1016D000012000E0002010BD38B50020009000245B
:1016E000002500BF3120FFF7D9FF05460098401CB8
:1016F00000900098B0F5A04F01D0002DF2D031201D
:10170000FFF7CCFF08B1012400E00024204638BDDB
:1017100001460020C34A106820F0F80040EAC100EA
:1017200010607047C349086070470021BD4A70329D
:1017300011701170012802D004280AD104E001219F
:10174000B84A7032117005E00521B64A7032117046
:1017500000E000BF00BF7047B7490860704770B530
:10176000049C41EA82150126C6EB530645EA06456C
:10177000054345EA0465AB4E361D356070BDAD4985
:1017800008667047820142EA0172A64B84331A60F0
:101790007047A8498866704710B5830143EA016322
:1017A00043EA02739F4C8834236010BDA149086747
:1017B0007047A049C864704702460020994B08331F
:1017C000186820F0EC6042EA01031843954B083397
:1017D0001860704702460020924B0833186820F0CA
:1017E000784042EA010318438E4B08331860704773
:1017F000014600208B4A0832106820F0030008439D
:101800001060704787480830006800F00C0070478F
:1018100001460020834A0832106820F0F000084397
:1018200010607047014600207E4A0832106820F49C
:10183000E05008431060704701460020794A0832A2
:10184000106820F4604040EAC10010607047F0B5B5
:10185000002100220024022500260223714F0837B0
:101860003F6807F00C0121B1042905D0082937D1C0
:1018700005E0724F076036E0714F076033E0694F53
:101880003F1D3F68C7F38056664F3F1D3F6807F016
:101890003F036EB16A4FB7FBF3F7DFF888C10CF175
:1018A000040CDCF800C0CCF3881C07FB0CF40CE043
:1018B000624FB7FBF3F7DFF86CC10CF1040CDCF8F6
:1018C00000C0CCF3881C07FB0CF4564F3F1D3F684B
:1018D000C7F301477F1C7D00B4FBF5F7076002E00A
:1018E000564F076000BF00BF4E4F08373F6807F0F4
:1018F000F0010909534F7A5C0768D7404760494FA8
:1019000008373F6807F4E051890A4E4F7A5C476810
:10191000D7408760434F08373F6807F46041490B61
:10192000484F7A5C4768D740C760F0BD002100F49B
:101930004072B2F5407F0AD13A4A0832116821F468
:10194000F811414A02401143364A08321160354AC3
:1019500070321268C0F30B031A43324B70331A60B3
:101960007047354944390860704733494039086049
:10197000704736490860704701460020294A8C327A
:10198000106820F01F004A1E1043264A8C32106057
:10199000704701460020234A8C32106820F4F8502A
:1019A0004A1E40EA02201F4A8C32106070470146EE
:1019B00000201C4A8C32106820F44010084310604C
:1019C000704701460020174A8C32106820F440000E
:1019D00008431060704701460020124A8C3210689C
:1019E00020F4403008431060704719490860704780
:1019F00039B10C4A3032126802430A4B30331A6054
:101A000006E0084A303212688243064B30331A60CF
:101A10007047F9B1034A343212680243014B343340
:101A20001A601CE000380240FFFFF6EA1030002484
:101A30000030002000004742800E47420024F4009E
:101A400000127A002A000020FFFCFF0F5C014742D1
:101A5000E01147428F4A126882438E4B1A607047EA
:101A600039B18C4A121D126802438A4B1B1D1A6041
:101A700006E0884A121D12688243864B1B1D1A60BD
:101A8000704739B1834A0C3212680243814B0C33E0
:101A90001A6006E07F4A0C32126882437D4B0C3399
:101AA0001A60704739B17B4A103212680243794B91
:101AB00010331A6006E0774A103212688243754B81
:101AC00010331A60704739B1724A243A12680243DF
:101AD000704B243B1A6006E06E4A243A1268824337
:101AE0006C4B243B1A60704739B16A4A203A12683D
:101AF0000243684B203B1A6006E0664A203A1268AF
:101B00008243644B203B1A60704739B1614A1C3AEA
:101B1000126802435F4B1C3B1A6006E05D4A1C3AA8
:101B2000126882435B4B1C3B1A60704739B1594ABB
:101B3000143A12680243574B143B1A6006E0554AA8
:101B4000143A12688243534B143B1A60704739B100
:101B5000504A103A126802434E4B103B1A6006E09E
:101B60004C4A103A126882434A4B103B1A60704745
:101B700039B1484A1C3212680243464B1C331A6082
:101B800006E0444A1C3212688243424B1C331A60FE
:101B9000704739B13F4A2032126802433D4B20332F
:101BA0001A6006E03B4A203212688243394B2033E8
:101BB0001A60704739B1374A243212680243354BF4
:101BC00024331A6006E0334A243212688243314BD0
:101BD00024331A60704739B12E4A2C3212680243FE
:101BE0002C4B2C331A6006E02A4A2C3212688243AE
:101BF000284B2C331A60704739B1264A30321268AC
:101C00000243244B30331A6006E0224A3032126815
:101C10008243204B30331A607047012808D11D4998
:101C20003C31096841F008011A4A3C32116007E072
:101C300018493C31096821F00801164A3C3211600C
:101C4000704739B1134A273A12780243114B273BA8
:101C50001A7006E00F4A273A127882430D4B273B51
:101C60001A7070470B484030006840F08070094996
:101C700040310860704701460020064A283A126841
:101C80000A400AB1012000E00020704701492639CE
:101C9000087070473438024010B50446FA48844250
:101CA00008D101211020FFF752FF00211020FFF77B
:101CB0004EFF57E0F548844209D101214804FFF75F
:101CC00035FF00214FF40030FFF730FF4AE0F048C5
:101CD000844209D101218804FFF728FF00214FF435
:101CE0008020FFF723FF3DE0EA48844209D101212B
:101CF000C804FFF71BFF00214FF40020FFF716FF79
:101D000030E0E548844209D101210805FFF70EFFC4
:101D100000214FF48010FFF709FF23E0DF488442E1
:101D200008D101212020FFF712FF00212020FFF71A
:101D30000EFF17E0DA48844209D101218807FFF736
:101D4000F5FE00214FF08040FFF7F0FE0AE0D54895
:101D5000844207D101214005FFF7E8FE002160051C
:101D6000FFF7E4FE10BD2DE9FF4705460E460024AF
:101D7000A14600BFA046B08900B100BF2C8A24F460
:101D80004054F08804432C82AC8941F20C608443B7
:101D9000B08831890843718908430443AC81AC8A17
:101DA00024F44074B0890443AC826846FFF74FFDC9
:101DB000B548854202D0B948854202D1DDF80C9081
:101DC00001E0DDF80890A88900F4004040B109EB7B
:101DD000C90000EB091031684900B0FBF1F707E0DA
:101DE00009EBC90000EB091031688900B0FBF1F77D
:101DF0006420B7FBF0F004012009642101FB107896
:101E0000A88900F4004040B1322000EBC800B0FBCC
:101E1000F1F000F00700044308E0322000EB081066
:101E20006421B0FBF1F000F00F0004432C81BDE809
:101E3000FF874FF41651016000218180C18001812C
:101E40000C21418100218181704710B5024600209C
:101E5000108A20F470600B884C8823438C882343BD
:101E6000CC8823431843108210BD0021018041809B
:101E70008180C180704721B1828942F40052828101
:101E800004E082894DF6FF731A4082817047028B0D
:101E900002F47F420283028B0A430283704721B11E
:101EA000828942F40042828103E08289C2F30E02F9
:101EB0008281704721B1828A42F40062828204E00A
:101EC000828A4FF2FF731A4082827047C1F3080280
:101ED0008280704701468888C0F308007047028AF4
:101EE0004FF6F0731A400282028A0A430282704758
:101EF00021B1828942F00202828104E082894FF698
:101F0000FD731A408281704782894FF2FF731A4035
:101F1000828182890A4382817047028A4FF6DF7389
:101F20001A400282028A0A430282704721B1028A61
:101F300042F48042028204E0028A4BF6FF731A40A8
:101F400002827047818941F001018181704721B18E
:101F5000828A42F00802828204E0828A4FF6F77396
:101F60001A4082827047028BD2B20283028B42EA0D
:101F700001220283704721B1828A42F020028282CC
:101F800004E0828A4FF6DF731A408282704721B1E3
:101F9000828A42F01002828204E0828A4FF6EF7356
:101FA0001A4082827047828A4FF6FB731A408282FF
:101FB000828A0A438282704721B1828A42F00202F9
:101FC000828204E0828A4FF6FD731A408282704753
:101FD0001AB1838A0B43838202E0838A8B43838214
:101FE0007047F0B50346002400260025002040F687
:101FF0006A17B94200D100BF1846C1F3421401F07C
:102000001F06012707FA06F5012C01D10C3004E068
:10201000022C01D1103000E014301AB107682F43B0
:10202000076002E00768AF430760F0BD024600208A
:10203000B1F5007F00D100BF13880B400BB1012028
:1020400000E00020704701F40072B2F5007F00D17B
:1020500000BFCA430280704770B5024600240023C7
:102060000025002040F66A16B14200D100BFC1F33E
:10207000421501F01F03012606FA03F3012D13D1C7
:102080009689334017E000000010014000440040F2
:1020900000480040004C0040005000400014014047
:1020A00000780040007C0040022D02D1168A3340A7
:1020B00001E0968A33400C12012606FA04F41688D1
:1020C000344013B10CB1012000E0002070BD10B508
:1020D0000022002340F66A14A14200D100BF0A1278
:1020E00001249440A3B2DC43048010BD70B50346C4
:1020F0000C4603E014F8015B03F8015B151EA2F126
:102100000102F7D170BD30B5034601E003F8011BB1
:10211000141EA2F10102F9D130BD10B504467A496E
:1021200051F824104A00794951F824000021FFF7A2
:10213000EAFF774951F8242074490C3951F82400FA
:102140000021FFF7E0FF012170480C30015510BD60
:1021500010B501460023002207E06C4850F821002A
:1021600030F8120000B15B1C521C674850F8210087
:102170009042F2D864205843634C54F82140B0FB9D
:10218000F4F0C0B210BD2DE9F04704460F4600251B
:10219000A9465E480C30005D20B95C4814380168DF
:1021A000204688471FB94FF0FF30BDE8F0875948F7
:1021B00050F82400B7FBF0F6564850F82400B7FB5F
:1021C000F0F100FB117000B1761C4F4850F824006C
:1021D000451E20E04D4850F8240030F8150010B995
:1021E00009F1010901E04FF00009B14512D14FF0AA
:1021F000000808E0454850F8240005EB080220F8E4
:10220000126008F10108B045F4D3424850F82400A8
:102210006843CAE76D1E002DDCDA4FF0FF30C4E7DB
:102220002DE9F04104460E4638480C30005D38B9BF
:10223000364814380168204688470120BDE8F081FF
:10224000334850F82400B04217D9324850F82400DF
:10225000B6FBF0F12D4850F8240030F8112000258D
:1022600007E00023294850F824004F1920F81730C0
:102270006D1C9542F5DB0020E0E70220DEE770B53B
:1022800005460C4604B970BD20480C3850F82500AE
:10229000261A31462846FFF7C3FF00BFF3E770B5A3
:1022A00004460E4631462046FFF76DFF0546681C82
:1022B00008B9002070BD15480C3850F82400284497
:1022C000F8E72DE9F04104460F4616463146204610
:1022D000FFF759FF0546681C10B90020BDE8F081E2
:1022E0000A490C3951F82410481932463946FFF78B
:1022F000FDFE39462046FFF7C2FF04480C3850F86F
:1023000024002844EAE70000407A0008500000203A
:10231000587A00084C7A000800F1080141604FF03B
:10232000FF31816000F10801C1600161002101609D
:10233000704700210161704742684A6093688B6072
:10234000936859609160086103685B1C0360704783
:1023500010B502460B685C1C0CB9106907E002F16D
:10236000080000E04068446824689C42FAD9446848
:102370004C604C68A160886041600A611468641C0C
:10238000146010BD01460A69D1E901309860D1E9B5
:10239000010358605068884201D18868506000206D
:1023A00008611068401E1060106870472DE9F04108
:1023B00005460E4601272C462CB94FF49772F1A121
:1023C000F7A004F061F8002C42D0E06B00283FD069
:1023D0004FF0FF31E06BB1FBF0F0216C884237D356
:1023E00003F09DFFD4E90F12206801FB0200A060FA
:1023F0000020A06320686060E06B401E226C2168B2
:1024000000FB0211E160FF2084F8440084F84500DD
:102410009EB9206908B9012000E00020A8B904F1A4
:10242000100002F060FA80B14FF08050E04908607F
:10243000BFF34F8FBFF36F8F07E004F11000FFF77A
:102440006BFF04F12400FFF767FF03F08BFF00E050
:1024500000270FB1012000E0002028B940F26312EC
:10246000C8A1CFA004F010F83846BDE8F0812DE9EE
:10247000F04106460D4617469846069C0DB9246065
:1024800000E02760E663256401212046FFF78EFF08
:1024900084F850800020A064BDE8F0812DE9F84365
:1024A00005460E4617460024E5B1601EB0FBF5F068
:1024B000B04217D305FB06F010F1550F12D805FBFB
:1024C00006F909F1540003F0FEFC04468CB1A04665
:1024D00008F154083B464246314628460094FFF72F
:1024E000C6FF06E02CB94FF4F272A6A1ACA003F02F
:1024F000CBFF2046BDE8F8832DE9F04104460F46A6
:1025000015464FF00008A66B206C48B920680028DB
:102510002CD1A06802F0FCFB80460020A06025E0E2
:102520007DB93946226C606804F013F9216C60684B
:1025300008446060D4E90101884217D320686060D4
:1025400014E03946226CE06804F003F9216CE0687D
:10255000411AE1602168E068884203D2216CA068DA
:10256000411AE160022D01D106B1761E701CA063F4
:102570004046BDE8F081F1B50098846C00262CB986
:1025800040F6E3327FA186A003F07EFFA06BE16BF3
:10259000884201D2012000E0002028B940F6E43250
:1025A00078A17FA003F070FFA06BE16B88422DD271
:1025B00094F94550002269462046FFF79DFF0646E4
:1025C000681C60B9606A08B9012000E00020E0B929
:1025D00004F1240002F087F9B8B1012615E001F0FA
:1025E000C7FE0746BD420FD27F2D01D0012000E07B
:1025F000002028B940F6044262A169A003F044FF1C
:10260000681C40B284F8450000BF00BF3046F8BDEA
:1026100070B5044603F083FE94F9455019E0A06CB0
:1026200030B12046FFF7A7FF88B102F0D2FA0EE0E2
:10263000606A08B9012000E0002038B904F12400E4
:1026400002F051F918B102F0C4FA00E003E0681E8C
:1026500045B2002DE3DC00BFFF2084F8450003F005
:1026600081FE03F05CFE94F9445010E0206908B943
:10267000012000E0002048B904F1100002F033F915
:1026800008B102F0A6FA681E45B200E001E0002D94
:10269000ECDC00BFFF2084F8440003F063FE70BD53
:1026A00070B5054603F03BFEA86BE96B884201D18B
:1026B000012400E0002403F055FE204670BD2DE902
:1026C000FF4782B0064688461D464FF00009344653
:1026D0002CB94FF453722BA131A003F0D5FEB8F101
:1026E000000F01D1206C08B9012000E0002028B9BA
:1026F00040F24D3223A12AA003F0C6FE022D02D1E2
:10270000E06B012801D1012000E0002028B940F24F
:102710004E321CA122A003F0B7FE02F07DFA08B9E8
:10272000049808B9012000E0002028B940F2513295
:1027300014A11BA003F0A8FE00BF03F0F0FDA06BE6
:10274000E16B884201D3022D57D1D4F838A02A4634
:1027500041462046FFF7D0FE0746A06C88B1022D07
:1027600002D1BAF1000F42D12046FFF704FFA0B317
:102770004FF080500E490860BFF34F8FBFF36F8F4B
:1027800035E017E02E2E5C4672656552544F535C5F
:10279000536F757263655C71756575652E630000B6
:1027A0004572726F723A2025732C2025640D0A0041
:1027B00004ED00E0606A08B9012000E0002068B97B
:1027C00004F1240002F08FF838B14FF08050FE4938
:1027D0000860BFF34F8FBFF36F8F08E03FB14FF03A
:1027E0008050F9490860BFF34F8FBFF36F8F03F03C
:1027F000B9FD012006B0BDE8F087049818B903F0D0
:10280000B1FD0020F6E7B9F1000F04D1684602F0EF
:1028100091F94FF0010903F0A5FD01F0D1F903F0A2
:102820007EFD94F94400401C10B9002084F8440057
:1028300094F94500401C10B9002084F8450003F0CD
:1028400091FD04A9684602F07CF9F8B92046FFF72B
:1028500027FFA8B104F11000049901F0C4FF20463D
:10286000FFF7D6FE01F0AFF800287FF466AF4FF017
:102870008050D5490860BFF34F8FBFF36F8F5CE77F
:102880002046FFF7C5FE01F09EF856E72046FFF709
:10289000BFFE01F098F80020ACE710B5044654B133
:1028A0000020A06020600021E16000231A46194644
:1028B0002046FFF704FF10BD2DE9F0410446012634
:1028C0000027224600210120FFF7E8FD05462846A3
:1028D000FFF7E3FF2846BDE8F08170B505462C46BA
:1028E0003CB940F2A122AFF26411AFF24C1003F0F8
:1028F000CBFD02F08EF9A16888420CD1E068401E41
:10290000E060E06828B900231A4619462046FFF720
:10291000D6FE012600E00026304670BD01464A6A18
:1029200022B10A6B1268C2F1200000E0002070475B
:1029300070B5054603F0F3FCA86B08B9012400E06C
:10294000002403F00FFD204670BD2DE9F34182B055
:10295000054600272C46B8463CB940F2FD52AFF27E
:10296000DC11AFF2C41003F08FFD206C08B9012018
:1029700000E0002038B940F20162AFF2F811AFF286
:10298000E01003F081FD02F047F908B9039808B997
:10299000012000E0002038B940F20662AFF21C21AD
:1029A000AFF2042003F070FD00BF03F0B8FCA66B8B
:1029B000FEB1701EA063206810B902F029FBA06070
:1029C000206908B9012000E0002060B904F110007E
:1029D00001F089FF38B14FF080507B490860BFF3A8
:1029E0004F8FBFF36F8F03F0BDFC012004B0BDE833
:1029F000F081039818B903F0B5FC0020F6E71FB981
:102A0000684602F097F8012703F0ACFC01F0D8F813
:102A100003F085FC94F94400401C10B9002084F8B0
:102A2000440094F94500401C10B9002084F845008A
:102A300003F098FC03A9684602F083F840BB2046E7
:102A4000FFF776FFF0B1206838B903F068FCA068A2
:102A500002F0EEF8804603F085FC04F124000399AF
:102A600001F0C1FE2046FFF7D3FD00F0ACFF0028C7
:102A70009BD14FF0805054490860BFF34F8FBFF394
:102A80006F8F92E72046FFF7C3FD00F09CFF8CE7B5
:102A90002046FFF7BDFD00F096FF2046FFF748FFF8
:102AA000002882D0B8F1000F0BD003F038FC20468C
:102AB000FFF734FF06463146A06802F092F903F0B2
:102AC00051FC002092E72DE9F04106460F463446BE
:102AD0003CB940F2D922AFF25431AFF23C3003F0AE
:102AE000D3FC02F096F8A168884204D1E068401C4B
:102AF000E060012508E039462046FFF726FF05463D
:102B000015B1E068401CE0602846BDE8F08170B572
:102B100005460E46002455B1AE4208D802220021D7
:102B20002846FFF7BBFC044654B1A66308E03CB955
:102B300040F23932AFF2B431AFF29C3003F0A4FC72
:102B4000204670BD2DE9FC5F81468B4615461E462A
:102B50004C463CB94FF48462AFF2D831AFF2C0308A
:102B600003F092FCBBF1000F01D1206C08B90120E9
:102B700000E0002038B940F22142AFF2F831AFF264
:102B8000E03003F081FC022E02D1E06B012801D17C
:102B9000012000E0002038B940F22242AFF21C418F
:102BA000AFF2044003F070FC03F00CFC00BF5020B7
:102BB000EFF3118180F31188BFF34F8FBFF36F8F55
:102BC00000BF0F46A06B01E004ED00E0E16B88421E
:102BD00001D3022E47D194F94580A06B0190324673
:102BE00059462046FFF788FC08F10100E8B9A06CBF
:102BF00060B1022E02D10198002831D12046FFF7A2
:102C0000BAFC68B365B30120286029E0606A08B99E
:102C1000012000E0002018BB04F1240001F063FE55
:102C2000F0B1EDB1012028601AE001F0A1FB0090A5
:102C30000098804513D2B8F17F0F01D0012000E049
:102C4000002038B940F2AB42AFF2C841AFF2B04019
:102C500003F01AFC08F1010040B284F8450000BFFF
:102C60004FF0010A01E04FF0000A00BF87F311881E
:102C700000BF5046BDE8FC9F2DE9F05F80460D4641
:102C800044463CB940F2C942AFF20851AFF2F040BD
:102C900003F0FAFB206C08B9012000E0002038B9ED
:102CA00040F2CD42AFF22451AFF20C5003F0ECFBF6
:102CB000206808B9A06808B9012000E0002038B9F0
:102CC00040F2D242AFF24451AFF22C5003F0DCFBA1
:102CD00003F078FB00BF5021EFF3118081F31188DE
:102CE000BFF34F8FBFF36F8F00BF0646D4F838A0F5
:102CF000E06B50453BD994F945700AF10100A0639F
:102D0000781CC8B9A06C40B12046FFF734FC0028FD
:102D10002AD04DB30120286026E0606A08B901205E
:102D200000E0002000BB04F1240001F0DCFDD8B17C
:102D3000D5B10120286017E001F01AFB83465F45FA
:102D400011D27F2F01D0012000E0002038B940F2DD
:102D50005152AFF2D051AFF2B85003F095FB781C4E
:102D600040B284F8450000BF4FF0010901E04FF088
:102D7000000900BF86F3118800BF4846BDE8F09FF8
:102D800070B504460D46206C70B1216CE0680144BA
:102D9000E160D4E90210884201D32168E16028464D
:102DA000226CE16803F0D5FC70BD2DE9F74183B0DA
:102DB00005460E464FF000082C463CB940F26B52D7
:102DC000AFF24061AFF2286003F05EFB0EB9206CF9
:102DD00008B9012000E0002038B940F26F52AFF28C
:102DE0005C61AFF2446003F04FFB01F015FF08B9DE
:102DF000059808B9012000E0002038B940F274526B
:102E0000AFF28061AFF2686003F03EFB00BF03F0F9
:102E100086FAA76BF7B131462046FFF7B1FF781E5F
:102E2000A063206908B9012000E0002060B904F126
:102E3000100001F058FD38B14FF08050FB49086098
:102E4000BFF34F8FBFF36F8F03F08CFA012006B0F2
:102E5000BDE8F081059818B903F084FA0020F6E780
:102E6000B8F1000F04D101A801F064FE4FF0010891
:102E700003F078FA00F0A4FE03F051FA94F944004C
:102E8000401C10B9002084F8440094F94500401C0F
:102E900010B9002084F8450003F064FA05A901A8E0
:102EA00001F04FFEF0B92046FFF742FDA0B104F15A
:102EB0002400059901F097FC2046FFF7A9FB00F0DC
:102EC00082FD0028A3D14FF08050D8490860BFF39D
:102ED0004F8FBFF36F8F9AE72046FFF799FB00F003
:102EE00072FD94E72046FFF793FB00F06CFD20464F
:102EF000FFF71EFD00288AD00020A8E72DE9F74340
:102F000082B005460E464FF000082C463CB940F210
:102F1000CD62AFF29071AFF2787003F0B5FA0EB9EE
:102F2000206C08B9012000E0002038B940F2D162DD
:102F3000AFF2B071AFF2987003F0A6FA01F06CFE38
:102F400008B9049808B9012000E0002038B940F21F
:102F5000D662AFF2D071AFF2B87003F095FA00BF4D
:102F600003F0DDF9D4F83890B9F1000F1ED0E7680E
:102F700031462046FFF704FFE760606A08B9012088
:102F800000E0002060B904F1240001F0ACFC38B18D
:102F90004FF08050A5490860BFF34F8FBFF36F8F8C
:102FA00003F0E0F9012005B0BDE8F083049818B9FA
:102FB00003F0D8F90020F6E7B8F1000F04D1684615
:102FC00001F0B8FD4FF0010803F0CCF900F0F8FD76
:102FD00003F0A5F994F94400401C10B9002084F8CE
:102FE000440094F94500401C10B9002084F84500C5
:102FF00003F0B8F904A9684601F0A3FDF0B9204632
:10300000FFF796FCA0B104F12400049901F0EBFB5A
:103010002046FFF7FDFA00F0D6FC0028A0D14FF0C3
:10302000805082490860BFF34F8FBFF36F8F97E7DF
:103030002046FFF7EDFA00F0C6FC91E72046FFF7C7
:10304000E7FA00F0C0FC2046FFF772FC002887D0AA
:103050000020A8E72DE9F84F07468A4690463C46EF
:103060003CB940F26272AFF6E401AFF6CC0003F077
:103070000BFABAF1000F01D1206C08B9012000E071
:10308000002038B940F26372AFF60811AFF6F000D5
:1030900003F0FAF903F096F900BF5021EFF3118025
:1030A00081F31188BFF34F8FBFF36F8F00BF0546C9
:1030B000D4F838B0BBF1000F38D094F944605146D1
:1030C0002046FFF75DFEABF10100A063701C88B9DC
:1030D000206908B9012000E0002020BB04F11000A5
:1030E00001F001FCF8B1B8F1000F1CD00120C8F8C4
:1030F000000018E001F03CF900900098864211D2DF
:103100007F2E01D0012000E0002038B940F2A672E5
:10311000AFF69011AFF6781003F0B6F9701C40B21C
:1031200084F8440000BF4FF0010901E04FF00009AE
:1031300000BF85F3118800BF4846BDE8F88F2DE930
:10314000F0470646884634463CB940F2BF72AFF6B7
:10315000CC11AFF6B41003F097F9B8F1000F01D11C
:10316000206C08B9012000E0002038B94FF4F86263
:10317000AFF6F011AFF6D81003F086F9206C08B165
:10318000012000E0002038B940F2C172AFF60C21F6
:10319000AFF6F41003F078F903F014F900BF5021F2
:1031A000EFF3118081F31188BFF34F8FBFF36F8F5F
:1031B00000BF0546A06B48B1D4F80C9041462046AC
:1031C000FFF7DEFDC4F80C90012700E0002700BFE8
:1031D00085F3118800BF3846BDE8F08770B5044616
:1031E0003CB940F2F272AFF66421AFF64C2003F026
:1031F0004BF903F094F8A56B03F0B4F8284670BDC2
:1032000070B5044625463DB940F60302AFF68C2161
:10321000AFF6742003F038F903F081F8D5E90E1009
:10322000461A03F09FF8304670BD000004ED00E040
:1032300070B5044625463DB940F61402AFF6BC21F0
:10324000AFF6A42003F020F9AE6B304670BD70B528
:1032500005463DB940F62432AFF6D821AFF6C0207E
:1032600003F012F900240EE0884800EBC400406827
:10327000A84207D10020854941F8340001EBC40180
:10328000486002E0641C082CEED300BF70BD70B52E
:10329000044625463DB940F61F02AFF61831AFF699
:1032A000003003F0F1F82846FFF7D1FF284602F07E
:1032B0008BFE70BD0146C86C7047C1647047014603
:1032C00091F85000704770B5044626463EB940F666
:1032D0007912AFF65031AFF6383003F0D5F8B06B55
:1032E00008B9012500E00025284670BD70B50446E8
:1032F00026463EB940F6A212AFF67831AFF66030FE
:1033000003F0C2F8B06BF16B884201D1012500E0F7
:103310000025284670BD2DE9F04105460F460026E0
:103320003DB940F6D822AFF6A431AFF68C3003F0A9
:10333000ABF8BFB1002412E0544800EBC400406871
:10334000A84203D1514800EBC4060AE036B94F4801
:1033500050F8340010B94D4800EBC406641C082C2A
:10336000EAD300BF0EB137607560BDE8F08170B57B
:10337000054600263DB940F60632AFF6F831AFF605
:10338000E03003F081F800240AE0404800EBC4007C
:103390004068A84203D13D4850F8346002E0641C04
:1033A000082CF2D300BF304670BD2DE9F041054630
:1033B0000E4617462C4602F0B2FF94F94400401C1A
:1033C00010B9002084F8440094F94500401C10B95D
:1033D000002084F8450002F0C5FFA06B28B93A46EA
:1033E000314604F1240001F052FA2046FFF710F9AB
:1033F000BDE8F08170B50446002204212046FFF7A5
:103400004DF80546284670BD70B504460E4602F0DC
:1034100086FFA06C08B1002505E0A06B08B100256F
:1034200001E0A664012502F09DFF284670BD2DE94C
:10343000F04105460F462E46B06CB84201D000243C
:103440000AE0B06B08B1002406E002F068FF00203B
:10345000B06402F087FF01242046BDE8F08138B552
:1034600005460C4600200090224669462846FFF794
:103470009CFC009838BD38B504460020009000221E
:1034800069462046FFF7E6FD009838BDC0AA012036
:1034900010B5002407E004EB8401FE4A02EB810032
:1034A000FEF73AFF641C202CF5D3FB48FEF734FFEF
:1034B000FA48FEF731FFFA48FEF72EFFF948FEF70B
:1034C0002BFFF948FEF728FFF348F8490860F34856
:1034D000F749086010BD10B5044602F020FFF5481A
:1034E0000068401CF3490860F348006840B9F2489E
:1034F00004600846006801280DD1FFF7C9FF0AE003
:10350000EE48006838B9EC480068C06AE16A884251
:1035100001D8E9480460EA480068401CE8490860AE
:1035200008460068606494F82C1001208840E54942
:1035300009680843E3490860E16A01EB8101D54A63
:1035400002EB81014868A0608268E260211D826808
:1035500051608160E16A01EB8101CE4A02EB810298
:103560006261E16A01EB8101CA4A52F82110491CEB
:10357000E26A02EB8202C74B43F8221002F0F2FE2D
:10358000CE48006868B1CC480068C06AE16A8842E9
:1035900007D24FF08050CC490860BFF34F8FBFF384
:1035A0006F8F10BD2DE9F05F82460F4690469B4617
:1035B0000A9E0C9C4FEA8801A522206B03F00EF9AD
:1035C000A8F10100216B01EB800929F0070909F03E
:1035D000070008B9012000E0002028B940F25D3260
:1035E000BAA1C1A002F050FF7FB1002507E0795DCC
:1035F00004F134004155785D00B902E06D1C102DD6
:10360000F5D300BF002143200155202E01D2012017
:1036100000E0002028B940F29232ACA1B2A002F042
:1036200033FF202E00D31F26E662E664201DFEF73E
:1036300080FE04F11800FEF77CFE2461C6F1200034
:10364000A06164625A465146484602F091FD2060EE
:103650000B9808B10B980460BDE8F09F2DE9FF4F6F
:1036600085B0804689461746DDE912ABB80002F006
:103670002AFC064676B15C2002F025FC04462CB1FB
:103680005C21204603F0D4F8266304E0304602F0C3
:103690009BFC00E000247CB10020CDE900ABCDE92B
:1036A00002403A4649464046089BFFF77BFF2046CA
:1036B000FFF711FF012501E04FF0FF35284609B063
:1036C000BDE8F08F10B50446206B02F07DFC20466B
:1036D00002F07AFC10BD75480068006808B9012046
:1036E00000E0002020B14FF0FF308349086005E082
:1036F0006E480068C06800687F490860704770B510
:10370000054602F00CFE15B96B48006800E028463B
:103710000446201DFEF736FE78B9E06A00EB800013
:103720005C4951F8200040B994F82C1001208840E1
:1037300064490968814363480160A06A18B104F1D3
:103740001800FEF71FFE5E480068401C5C490860D8
:1037500059480068844209D1211D5248FEF7ECFD0A
:1037600066480068401C6549086006E051480068EA
:10377000401E50490860FFF7AEFF02F0F3FD4E48CF
:103780000068844202D02046FFF79CFF4B48006847
:10379000C0B149480068844214D15948006808B94A
:1037A000012000E0002028B940F2AF4247A14EA01E
:1037B00002F06AFE4FF0805043490860BFF34F8F1C
:1037C000BFF36F8F70BD2DE9F0414FF000084C48FA
:1037D000006800285BD14B480068451C49480560DB
:1037E000EDB932480068006808B9012000E0002007
:1037F00028B940F6B72235A13BA002F045FE2B4880
:1038000007682B48006829490860294807603E4836
:103810000068401C3C490860FFF75DFF00BF364868
:103820000068854235D300BF20480068006808B9A9
:10383000012000E0002020B14FF0FF302E49086049
:10384000A6E01A480068C068C4686668B54202D23B
:10385000294806609CE06069D4E902128A60D4E9D4
:1038600002214A60211D42688A4201D1E16841601B
:10387000002262610168491E0160A06A40B1A06A2D
:10388000D4E907128A60D4E907214A603EE092E059
:1038900049E07EE000AB012080AD012094AD012025
:1038A000A8AD0120BCAD0120D0AD012064000020F6
:1038B0006800002070000020600000207C000020D4
:1038C0008C0000207800002004ED00E02E2E5C46E5
:1038D00072656552544F535C536F757263655C74C7
:1038E00061736B732E6300004572726F723A20250C
:1038F000732C2025640D0A00900000206C0000202D
:103900009C000020740000208800002004F11801B1
:1039100042688A4201D1216A41600022A2620168A4
:10392000491E016000BF94F82C1001208840FA491C
:1039300009680843F8490860E16A01EB8101F74A28
:1039400002EB81014868A0608268E260211D826804
:1039500051608160E16A01EB8101F04A02EB810272
:103960006261E16A01EB8101EC4A52F82110491CC5
:10397000E26A02EB8202E94B43F82210E849E06A6E
:103980000968C96A88427FF64FAF4FF001084BE7DC
:1039900000BFE3480068C06A00EB8000DF4951F8CF
:1039A0002000012801D94FF00108DE48006808B165
:1039B0004FF0010804E0DC480068401CDA49086068
:1039C0004046BDE8F08170B500240026D748006865
:1039D00038B940F68502AFF20C11AFF2F40002F0F4
:1039E00053FD02F09CFCD1480068401ECF4908609E
:1039F0000846006800287DD1CD480068002879D0AD
:103A00005BE0CC48C068C468A06AD4E907128A6049
:103A1000D4E907214A6004F1180142688A4201D1C1
:103A2000216A41600022A2620168491E016060694A
:103A3000D4E902128A60D4E902214A60211D426859
:103A40008A4201D1E1684160002262610168491E39
:103A5000016094F82C1001208840AF4909680843A0
:103A6000AD490860E16A01EB8101AC4A02EB8101DA
:103A70004868A0608268E260211D826851608160B0
:103A8000E16A01EB8101A54A02EB81026261E16A10
:103A900001EB8101A14A52F82110491CE26A02EBB4
:103AA00082029E4B43F822109D49E06A0968C96A68
:103AB000884202D301209B4908609E48006808B9EB
:103AC000012000E0002000289BD00CB1FFF703FE8E
:103AD0009548056865B100BFFFF775FE10B101207C
:103AE000904908606D1E002DF6D100208E490860B7
:103AF0008C4800E009E0006838B1012630078E49A3
:103B00000860BFF34F8FBFF36F8F02F02BFC30467E
:103B100070BD2DE9F04105460E4688480768002033
:103B20007F49096881F859007D480068001DFEF74B
:103B300029FC50B97A48006890F82C100120884080
:103B400075490968814374480160681CD8B9D6B1C9
:103B50007B494868724909688860714982680968C8
:103B6000CA606F490968091D826851606C4909681B
:103B7000091D8160724A6A4909684A6111460968EB
:103B8000491C11601AE07C19654800684460BC4219
:103B900007D263480168091D6A480068FEF7D8FB30
:103BA0000CE05F480168091D67480068FEF7D0FB1C
:103BB00066480068844201D264480460BDE8F08130
:103BC0005A480068401C5949086070472DE9F04781
:103BD00004460F464FF000093CB940F2C442AFF230
:103BE0001431AFF2FC2002F04FFC0FB1012000E0D5
:103BF000002038B940F2C542AFF23031AFF2183090
:103C000002F042FC4948006808B9012000E00020A9
:103C100038B940F2C642AFF24C31AFF2343002F064
:103C200033FCFFF7CDFF454806682068C5192068BA
:103C3000B04207D92068A8420BD9B54209D94FF044
:103C4000010906E02068A84201D8B54201D94FF029
:103C500001092560B9F1000F03D0A81B0021FFF76F
:103C600058FFFFF7B0FE8046B8F1000F07D14FF0C4
:103C7000805031490860BFF34F8FBFF36F8F4846C4
:103C8000BDE8F08770B504460025BCB12748006840
:103C900008B9012000E0002038B940F21C52AFF210
:103CA000D431AFF2BC3002F0EFFBFFF789FF002107
:103CB0002046FFF72EFFFFF786FE05463DB94FF081
:103CC00080501D490860BFF34F8FBFF36F8F70BDE9
:103CD0002DE9F04707463E463EB940F24A52AFF260
:103CE0001441AFF2FC3002F0CFFB0D480068864271
:103CF00001D1002449E002F012FB75691248D0F8A6
:103D000000801048D0F8009002F02CFB454501D00F
:103D10004D451DD1022438E07800002000AB012081
:103D20006000002084000020800000209C00002013
:103D300070000020A8AD012004ED00E07400002018
:103D4000D0AD012068000020640000209000002019
:103D5000FE48854212D1B06A70B90324002007E002
:103D600006F15801095C012901D1022402E0401C3E
:103D70000128F5DB00BF08E0022406E0F448854294
:103D800000D00DB9042400E001242046BDE8F087EE
:103D900070B5044602F0C3FA14B9EE48006800E0BA
:103DA00020460646F56A02F0DDFA284670BD2DE988
:103DB000F041054602F006FB00BF5021EFF31180F1
:103DC00081F31188BFF34F8FBFF36F8F00BF04469D
:103DD00015B9E048006800E028460746FE6A00BFC3
:103DE00084F3118800BF3046BDE8F0812DE9F0472B
:103DF00080460D464FF00009202D01D2012000E041
:103E0000002038B940F2EA52AFF24051AFF22850E8
:103E100002F03AFB202D00D31F2502F080FAB8F102
:103E2000000F02D1CB48006800E040460446E66C33
:103E3000AE4270D0B5420BD9C648006884420DD05E
:103E4000C4480068C06AA84208D84FF0010905E0DC
:103E5000C0480068844201D14FF00109E76AE16A75
:103E6000E06C884200D1E562E564A06900F00040A2
:103E700010B9C5F12000A06107EB8701B64A02EB3B
:103E800081016069884201D1012000E00020B0B3C7
:103E9000201DFEF777FA30B90120B840AF49096814
:103EA0008143AE48016094F82C1001208840AB4952
:103EB00009680843A9490860E16A01EB8101A64A43
:103EC00002EB81014868A0608268E260211D82687F
:103ED00051608160E16A01EB81019F4A02EB81023E
:103EE0006261E16A01EB81019B4A52F82110491C91
:103EF000E26A02EB8202984B43F8221000BFB9F14C
:103F0000000F07D04FF0805095490860BFF34F8FE6
:103F1000BFF36F8F00BF02F025FABDE8F08710B540
:103F20009048006818B101208F4908602FE00020F8
:103F30008D49086089480068B0FA80F0C0F11F041C
:103F400004EB8400844951F8200008B1012000E00E
:103F5000002038B940F6F632AFF29061AFF27860E7
:103F600002F092FA04EB84017B4A02EB8100416883
:103F70004968416000F1080142688A4202D1416803
:103F8000496841604168C968724A116000BF10BD4C
:103F900070B5054602F0C3F915B96E48006800E037
:103FA00028460446201DFEF7EDF978B9E06A00EBDB
:103FB0008000694951F8200040B994F82C10012084
:103FC000884066490968814364480160A06A18B165
:103FD00004F11800FEF7D6F9211D5C48FEF7ACF994
:103FE000002009E004F15801095C012903D10022F5
:103FF00004F158010A54401C0128F3DB02F0B2F925
:104000005A48006828B102F08AF9FFF764FB02F011
:10401000A9F950480068844226D154480068B8B1D4
:104020005048006808B9012000E0002038B940F28B
:10403000D262AFF26871AFF2507002F025FA4FF021
:10404000805047490860BFF34F8FBFF36F8F0BE07D
:104050003E48006846490968884203D100203D492E
:10406000086001E0FFF75BFF70BD70B505460026F4
:104070002C463DB940F2FC62AFF2B071AFF29870DD
:1040800002F002FA31496069884201D1012000E062
:10409000002070B13749A06A884201D1012000E0B8
:1040A000002030B9A06A08B9012000E0002000B16A
:1040B0000126304670BD70B505462C463DB940F22C
:1040C0002672AFF2F871AFF2E07002F0DDF921482C
:1040D000006884425ED0002C5CD002F020F92046BB
:1040E000FFF7C3FF80B3201DFEF74CF994F82C10A6
:1040F0000120884019490968084318490860E16AA5
:1041000001EB8101144A02EB81014868A0608268DA
:10411000E260211D826851608160E16A01EB8101EA
:104120000D4A02EB81026261E16A01EB81010A4AF8
:1041300052F82110491CE26A02EB8202064B43F856
:1041400022100449E06A17E022E00000D0AD01200F
:10415000BCAD01206000002000AB012078000020F1
:1041600004ED00E09C000020840000207C00002082
:1041700070000020A8AD01200968C96A884207D3F1
:104180004FF08050F7490860BFF34F8FBFF36F8F38
:1041900002F0E8F870BD2DE9F041064600273446EC
:1041A0003EB940F25D72AFF6DC01AFF6C40002F03A
:1041B0006BF902F007F900BF5020EFF3118180F393
:1041C0001188BFF34F8FBFF36F8F00BF0D4620469E
:1041D000FFF74BFF002841D0E3480068002838D1A2
:1041E000E249E06A0968C96A884203D301270120CD
:1041F000DF490860201DFEF7C5F894F82C10012057
:104200008840DC4909680843DA490860E16A01EB43
:104210008101D94A02EB81014868A0608268E260AE
:10422000211D826851608160E16A01EB8101D24AFF
:1042300002EB81026261E16A01EB8101CE4A52F830
:104240002110491CE26A02EB8202CB4B43F8221098
:1042500004E004F11801C948FEF76EF800BF85F3C9
:10426000118800BF3846BDE8F08110B516E002F0B5
:1042700056F8C348C068C468201DFEF783F8C148DB
:104280000068401EBF490860BF480068401EBE4924
:10429000086002F067F82046FFF714FABA48006891
:1042A0000028E4D110BD00BFFFF7DFFFB24800686F
:1042B0000128F9D94FF08050AA490860BFF34F8F09
:1042C000BFF36F8FF0E71CB5B04800210B4680228A
:1042D000CDE90010AEA1B048FFF7C0F90446012CAB
:1042E00002D101F0C6FB0446012C15D100BF5020BD
:1042F00080F31188BFF34F8FBFF36F8F00BF4FF074
:10430000FF30A64908600120A54908600020A549A2
:10431000086001F052FF0DE0601C08B1012000E0D0
:10432000002038B940F61202AFF66021AFF64820FF
:1043300002F0AAF89C4800681CBD10B500BF5020D0
:1043400080F31188BFF34F8FBFF36F8F00BF002042
:104350009349086001F0D2FF10BD92490868704788
:1043600070B502F02FF800258E480468204670BD15
:1043700084480068704770B5044614B97B480068EB
:1043800000E0204605463DB940F62B12AFF6C421A9
:10439000AFF6AC2002F078F805F1340070BD2DE9DD
:1043A000F04302460D460027106800284CD0104606
:1043B000D0F80480D8F80480C0F8048000F1080820
:1043C000D0F80490C14505D1D0F80480D8F8048015
:1043D000C0F80480D0F80480D8F80C6000BF104604
:1043E000D0F80480D8F80480C0F8048000F10808F0
:1043F000D0F80490C14505D1D0F80480D8F80480E5
:10440000C0F80480D0F80480D8F80C104FF0000CED
:10441000002311E001F13400C45CE85CA04202D04A
:104420004FF0010C03E014B90F464FF0010CBCF142
:10443000000F00D002E05B1C102BEBD300BF07B1D4
:1044400001E0B142CBD100BF3846BDE8F08370B582
:1044500006462025304602F05DF9102801D20120E1
:1044600000E0002038B940F67F12AFF6A031AFF679
:10447000883002F009F8FFF7A3FB00BF6D1E05EBC3
:1044800085013D4A02EB81003146FFF788FF044673
:1044900004B101E0002DF1D100BF2CB931464348F1
:1044A0000068FFF77CFF04462CB93146404800689D
:1044B000FFF775FF044624B931463E48FFF76FFF0A
:1044C000044624B931462E48FFF769FF0446FFF73A
:1044D0007AFA204670BD0246002101E0521C491CB8
:1044E0001078A528FAD0890888B270472DE9F041E4
:1044F00007460C4690461E4617B91C48006800E067
:1045000038460546256005F134006060E86A2061A0
:10451000286BE061686CA060E86C60610020A061BD
:10452000052E12D011480068854202D10020207368
:104530000FE02673032E0CD1FFF742FBA86A08B1E7
:1045400002202073FFF73FFA03E02846FFF7C0FB85
:104550002073B8F1000F2FD0286BFFF7BCFF208429
:104560002CE0000004ED00E09C0000206000002032
:10457000840000207800002000AB0120A8AD0120BD
:10458000BCAD0120700000206C00002094000020D1
:1045900049444C4500000000A7420008900000205C
:1045A0007C0000207400002098000020640000209F
:1045B00068000020D0AD012000202084BDE8F081FB
:1045C0002DE9F04707460C4690460026206848B380
:1045D000204641684968416000F1080142688A420A
:1045E00002D14168496841604168D1F80C9000BF30
:1045F000204641684968416000F1080142688A42EA
:1046000002D14168496841604168CD6806EBC60047
:1046100007EB8001434601222846FFF767FF761C1F
:104620004D45E5D13046BDE8F0872DE9F04105461E
:104630008846164600242027FFF7C2FAFE48006885
:10464000804539D300BF7F1E07EB8702FB4B03EB8E
:10465000820104EBC40205EB82000122FFF7B0FFE8
:104660000444002FEFD104EBC40105EB81000222CA
:10467000F3490968FFF7A4FF044404EBC40105EB08
:1046800081000222EF490968FFF79AFF044404EB16
:10469000C40105EB81000422EB49FFF791FF0444BC
:1046A00004EBC40105EB81000322E849FFF788FF12
:1046B00004440EB100203060FFF785F92046BDE8C4
:1046C000F08110B5E248006808B1012000E0002048
:1046D00038B940F60822AFF60C61AFF6F45001F09D
:1046E000D3FEDB48006810BD70B50446D9480068A9
:1046F00008B9012000E0002038B940F63E22AFF6AC
:104700003461AFF61C6001F0BFFEFFF759FA01F00B
:1047100006FED14800682044CF49086001F022FE1F
:10472000FFF751F90546284670BD70B505462C4681
:104730003CB940F65722AFF66C61AFF6546001F019
:10474000A3FEFFF73DFA2846FFF7C2FA022845D13B
:104750000126201DFDF716FE01F0E1FDA06A30B133
:1047600004F11800FDF70EFE012084F8590001F055
:10477000F9FD94F82C1001208840B84909680843D5
:10478000B6490860E16A01EB8101AC4A02EB8101A4
:104790004868A0608268E260211D82685160816083
:1047A000E16A01EB8101A54A02EB81026261E16AE3
:1047B00001EB8101A14A52F82110491CE26A02EB87
:1047C00082029E4B43F82210A549E06A0968C96A33
:1047D000884204D90120A349086000E00026FFF7C1
:1047E000F2F8304670BD70B504460D463CB940F64F
:1047F0000E42AFF62871AFF6107001F045FE9848F2
:10480000016818312046FDF7A3FD01212846FFF776
:1048100080F970BD70B504460D4616463CB940F6A9
:104820002842AFF65871AFF6407001F02DFE89486E
:10483000006808B1012000E0002038B940F62C42A1
:10484000AFF67871AFF6607001F01EFE45F00040E3
:10485000834909688861606881490968C86180493D
:10486000826809680A627E49096818318268516065
:104870007B49096818318160794909688C6221682F
:10488000491C216001213046FFF743F970BD70B526
:1048900004460E4615463CB940F64442AFF6D47184
:1048A000AFF6BC7001F0F0FD60686D490968C86141
:1048B0006B49826809680A62694909681831826827
:1048C00051606749096818318160654909688C62DF
:1048D0002168491C21600DB14FF0FF362946304652
:1048E000FFF717F970BD70B50646F068C46834B9B3
:1048F00040F674425C4901F11C0001F0C5FDA06A5C
:10490000D4E907128A60D4E907214A6004F118014A
:1049100042688A4201D1216A41600022A262016894
:10492000491E01604B48006800283DD16069D4E908
:1049300002128A60D4E902214A60211D42688A423B
:1049400001D1E1684160002262610168491E016095
:1049500094F82C10012088404049096808433F49D9
:104960000860E16A01EB8101344A02EB8101486889
:10497000A0608268E260211D826851608160E16A06
:1049800001EB81012D4A02EB81026261E16A01EBD8
:1049900081012A4A52F82110491CE26A02EB820284
:1049A000264B43F8221010E030494868E0618268E5
:1049B000226204F118018268516081602B4AA26270
:1049C00011460968491C116000BF2549E06A096861
:1049D000C96A884204D9012501202249086000E003
:1049E0000025284670BD70B505460E46194800687A
:1049F00008B1012000E0002030B940F6AC421A496D
:104A000001F11C0001F040FD46F000402860EC6818
:104A100034B940F6B442144901F11C0001F034FDF0
:104A20002869D5E901219160D5E9011251604168F9
:104A3000A9421ED1A9681BE07000002000AB012034
:104A40006400002068000020BCAD0120D0AD012032
:104A5000940000209C0000208000002078000020AE
:104A60006000002084000020CC380008A8AD0120A0
:104A70004160002129610168491E01606069D4E933
:104A800002128A60D4E902214A60211D42688A42EA
:104A900001D1E1684160002262610168491E016044
:104AA00094F82C1001208840FE4909680843FD490C
:104AB0000860E16A01EB8101FB4A02EB8101486871
:104AC000A0608268E260211D826851608160E16AB5
:104AD00001EB8101F44A02EB81026261E16A01EBC0
:104AE0008101F14A52F82110491CE26A02EB82026C
:104AF000ED4B43F82210ED49E06A0968C96A884223
:104B000002D90120EA49086070BD10B5044634B9E5
:104B100040F6D842E74901F11C0001F0B5FC01F074
:104B2000FEFBE54800682060E4480068606001F032
:104B300019FC10BDE04909680160E049096841605D
:104B4000704770B506460C4636B940F6EF42D94973
:104B500001F11C0001F098FC34B94FF44F62D549C3
:104B600001F11C0001F090FC01F0D9FBD348026870
:104B70007068131ACD48006890F8590030B10020D1
:104B8000CA49096881F8590001251EE02068401CC7
:104B900008B9002519E0C84930680968884206D07C
:104BA0007068904203D80125002020600DE0206845
:104BB000984207D92068C01A20603046FFF7BAFF34
:104BC000002502E000202060012501F0CBFB2846F3
:104BD00070BD0120B64908607047014611B10A4610
:104BE000906C00E00020704708B102469164704765
:104BF0002DE9F041044614B9AC48006800E02046B5
:104C000007463D6B2846FFF766FC06463046BDE882
:104C1000F081A64908687047A949096809B90120C7
:104C200005E0A849096809B9022000E000207047A2
:104C300070B505462C460026002D67D09B49E06ADA
:104C40000968C96A88425AD2A06900F0004028B9B0
:104C500096480068C06AC0F12000A061E16A01EBDB
:104C60008101914A02EB81016069884201D10120F2
:104C700000E00020E0B3201DFDF784FB40B994F86C
:104C80002C100120884087490968814385480160CC
:104C900086480068C06AE06294F82C1001208840C1
:104CA0008049096808437F490860E16A01EB810196
:104CB0007D4A02EB81014868A0608268E260211DA4
:104CC000826851608160E16A01EB8101764A02EB02
:104CD00081026261E16A01EB8101734A52F821109D
:104CE000491CE26A02EB82026F4B43F8221004E097
:104CF000FFE76E480068C06AE062012606E06B4983
:104D0000E06C0968C96A884200D20126304670BD4D
:104D100070B505462C460026002D60D0634800681B
:104D2000844201D1012000E0002030B941F2480264
:104D3000604901F11C0001F0A7FB206D30B941F280
:104D400049025C4901F11C0001F09EFB206D401EF0
:104D50002065E16CE06A884241D0206D00283ED198
:104D6000201DFDF70FFB40B994F82C10012088405E
:104D70004C49096881434B480160E06CE062E06A9D
:104D8000C0F12000A06194F82C1001208840454912
:104D90000968084343490860E16A01EB8101424A1E
:104DA00002EB81014868A0608268E260211D826890
:104DB00051608160E16A01EB81013B4A02EB8102B3
:104DC0006261E16A01EB8101374A52F82110491C06
:104DD000E26A02EB8202344B43F82210012630468D
:104DE00070BD2DE9F04706460F4634464FF00109E5
:104DF000002E69D0206D30B941F298022D4901F1A1
:104E00001C0001F041FBE06CB84201D23D4600E0DD
:104E1000E56CE06AA84274D0206D012871D1234866
:104E20000068844201D0012000E0002030B941F246
:104E3000B302204901F11C0001F026FBD4F82C80BC
:104E4000E562A06900F0004010B9C5F12000A06142
:104E500008EB8801144A02EB81016069884201D1A4
:104E6000012000E0002078B3201DFDF78BFA40B947
:104E700094F82C10012088400A49096881430948A8
:104E8000016094F82C100120884006490968084305
:104E900004490860E16A01EB8101034A02EB8101E8
:104EA000486812E07800002000AB0120600000207C
:104EB00084000020CC380008880000207400002006
:104EC0007C0000209C0000201BE0A0608268E26063
:104ED000211D826851608160E16A01EB8101FE4A17
:104EE00002EB81026261E16A01EB8101FA4A52F848
:104EF0002110491CE26A02EB8202F74B43F82210B0
:104F000000BFBDE8F08770B505460E46314628461D
:104F100001F0DCFB284601F0FDFB044602E0202006
:104F20002855641C0F2CFAD300202855281970BD71
:104F30002DE9FC41064600203070E848076801462C
:104F4000096801EBC101880000F0BDFF0546002D96
:104F500050D0002239462846FFF767FB0746002459
:104F600043E004EBC40005EB8000007B062813D26D
:104F7000DFE800F00306090C0F134FF058080FE0AC
:104F80004FF052080CE04FF0420809E04FF0530890
:104F900006E04FF0440803E000BF4FF0000800BFF8
:104FA00000BF04EBC40005EB800041683046FFF70A
:104FB000AAFF064604EBC40005EB8000806804EB02
:104FC000C40105EB8101098CCDE9001004EBC4009C
:104FD00005EB80004246C2A10369304601F060FA49
:104FE000304601F097FB0644641CBC42B9D3284606
:104FF00000F0EAFFBDE8FC81BD4909688869BC4949
:105000000968C96AC1F12001B94A12689161704703
:10501000B748006830B1B649096801F15000096D20
:10502000491C0160B248006870472DE9F041044610
:105030000F4616460CB9012000E0002030B941F2BD
:105040005922AC4901F11C0001F01EFA01F067F988
:10505000A7480068543050F8240080B90121A448C2
:1050600000685830015556B13046FEF752FD4FF0FA
:105070008050A1490860BFF34F8FBFF36F8F01F0DD
:1050800071F901F04CF99A480068543050F82450F6
:105090006DB137B1002196480068543040F82410B3
:1050A00005E0681E92490968543141F82400002146
:1050B0008F4800685830015501F054F92846BDE882
:1050C000F0812DE9F04704460F4690461D46DDF875
:1050D00020900CB9012000E0002030B941F2A32259
:1050E000844901F11C0001F0CFF901F018F9804862
:1050F00000685830005D02281AD07D490968543193
:1051000001EB84000168B94301600121784800681F
:1051100058300155B9F1000F0AD04846FEF7F9FCA6
:105120004FF0805074490860BFF34F8FBFF36F8F0B
:1051300001F018F901F0F3F82DB16D480068543012
:1051400050F8240028606A4800685830005D022842
:1051500001D0002609E066490968543101EB84005A
:10516000016821EA08010160012600216048006809
:105170005830015501F0F6F83046BDE8F0872DE9CA
:10518000F05F07460D4616469846DDF828A04FF01A
:10519000010B0DB9012000E0002030B941F2FB22E3
:1051A000544901F11C0001F06FF937B941F2FC22BA
:1051B000504901F11C0001F067F93C4601F0AFF8DD
:1051C000BAF1000F05D004F1540050F82500CAF8D8
:1051D000000004F1580010F8059002214155B8F183
:1051E000050F29D2DFE808F027030D171C0004F192
:1051F000540050F82500304304F1540141F82500D3
:1052000029E004F1540050F82500401C04F1540139
:1052100041F825001FE004F1540040F825601AE031
:10522000B9F1020F04D004F1540040F8256001E008
:105230004FF0000B0FE00EE03048006808B9012085
:1052400000E0002030B941F231322A4901F11C005E
:1052500001F01AF900BF00BFB9F1010F6FD1606909
:10526000D4E902128A60D4E902214A60211D426811
:105270008A4201D1E1684160002262610168491EF1
:10528000016094F82C10012088401D4909680843EA
:105290001B490860E16A01EB81010F4A02EB8101C1
:1052A0004868A0608268E260211D82685160816068
:1052B000E16A01EB8101084A02EB81026261E16A65
:1052C00001EB8101044A52F82110491CE26A02EB09
:1052D0008202014B16E0000000AB012070000020AC
:1052E0000925630925750925750925750D0A00002D
:1052F00060000020CC38000804ED00E074000020BD
:105300007800002043F82210A06A08B9012000E0CC
:10531000002030B94FF49A52FE4901F11C0001F00F
:10532000B3F8FD49E06A0968C96A884207D94FF0B5
:105330008050FA490860BFF34F8FBFF36F8F01F0C1
:1053400011F85846BDE8F09F2DE9F84F80460D460C
:1053500017469946DDF828B001200090B8F1000FFB
:1053600006D141F27832EB4901F11C0001F08CF8D2
:105370000DB9012000E0002030B941F27932E54951
:1053800001F11C0001F080F801F01CF8444600BF58
:105390005021EFF3118081F31188BFF34F8FBFF3DA
:1053A0006F8F00BF0646BBF1000F05D004F154001B
:1053B00050F82500CBF8000004F1580010F805A0C3
:1053C00002214155B9F1050F29D2DFE809F0270381
:1053D0000D171C0004F1540050F82500384304F167
:1053E000540141F8250029E004F1540050F825004B
:1053F000401C04F1540141F825001FE004F1540061
:1054000040F825701AE0BAF1020F04D004F15400FC
:1054100040F8257001E0002000900FE00EE0C04849
:10542000006808B9012000E0002030B94FF49E5216
:10543000B84901F11C0001F027F800BF00BFBAF124
:10544000010F6DD1A06A08B9012000E0002030B939
:1054500041F2CB32AF4901F11C0001F015F8B1481F
:105460000068E8BB6069D4E902128A60D4E90221CD
:105470004A60211D42688A4201D1E16841600022F0
:1054800062610168491E016094F82C100120884077
:10549000A54909680843A4490860E16A01EB810154
:1054A000A24A02EB81014868A0608268E260211D87
:1054B000826851608160E16A01EB81019B4A02EBE5
:1054C00081026261E16A01EB8101984A52F8211080
:1054D000491CE26A02EB8202944B43F8221011E06D
:1054E000FFE793494868E0618268226204F118018D
:1054F0008268516081608E4AA26211460968491C27
:10550000116000BF8449E06A0968C96A884207D906
:105510000B9810B101210B980160012085490860AA
:1055200000BF86F3118800BF0098BDE8F88F2DE911
:10553000F04705460E46904635B941F2FF327549AF
:1055400001F11C0000F0A0FF0EB9012000E00020D6
:1055500030B94FF4A0526F4901F11C0000F094FFE4
:1055600000F030FF2C4600BF5021EFF3118081F393
:105570001188BFF34F8FBFF36F8F00BF074604F151
:10558000580010F8069002218155001F50F826009F
:10559000401C04F1540141F82600B9F1010F6ED10D
:1055A000A06A08B9012000E0002030B941F226428B
:1055B000584901F11C0000F067FF5A4800680028B4
:1055C0003DD16069D4E902128A60D4E902214A60BF
:1055D000211D42688A4201D1E16841600022626176
:1055E0000168491E016094F82C10012088404E4942
:1055F000096808434C490860E16A01EB81014B4AA4
:1056000002EB81014868A0608268E260211D826827
:1056100051608160E16A01EB8101444A02EB810241
:105620006261E16A01EB8101404A52F82110491C94
:10563000E26A02EB82023D4B43F8221010E03C4943
:105640004868E0618268226204F118018268516052
:105650008160374AA26211460968491C116000BF87
:105660002D49E06A0968C96A884208D9B8F1000F73
:1056700002D00120C8F8000001202E49086000BFB8
:1056800087F3118800BFBDE8F0872DE9F041064699
:105690000C460CB9012000E0002030B941F256421E
:1056A0001C4901F11C0000F0EFFE16B91A48006811
:1056B00000E03046074600F032FE07F15800005D7A
:1056C000022805D1002107F158000155012500E00D
:1056D000002500F047FE2846BDE8F0812DE9F041A5
:1056E00006460C46174616B90B48006800E03046DF
:1056F000054600F014FE05F1540050F8248050F8DF
:105700002400B84305F1540141F8240000F02AFEBA
:10571000404611E0CC3800086000002004ED00E0B5
:10572000740000209C0000207800002000AB0120C5
:10573000A8AD012084000020BDE8F0812DE9F041F2
:1057400004460D4616461F464FF00008656024616A
:10575000B5420CD8F01BA169884202D34FF0010872
:1057600011E0211DFE480068FCF7F2FD0BE0BE428F
:1057700004D2BD4202D34FF0010804E0211DF948D4
:105780000068FCF7E5FD4046BDE8F08170B50446D1
:105790000D46164604E0A06905442046216A884764
:1057A000A06941192B4632462046FFF7C7FF002863
:1057B000F1D170BD70B505460E46EA480068C06874
:1057C000C468201DFCF7DEFD94F8280000F00400FA
:1057D00028B1324629462046FFF7D8FF05E094F865
:1057E000280000F0FE0084F828002046216A88473F
:1057F00070BD70B508E0DB480068C06804684FF011
:10580000FF312046FFF7D6FFD6480068006808B988
:10581000012000E000200028EDD0D2480568D048E3
:105820000068D0490860CE48056070BD70B5044678
:10583000FEF793FD0546CC480068854204D2FFF789
:10584000D8FF0120206001E000202060C6480560EC
:10585000284670BD70B586B08AE0029800280CDA40
:1058600003AE2EB940F20B32C0A1C7A000F00CFE6F
:10587000D6E90020B168904700BF0298002877DB86
:10588000049C606908B9012000E0002010B9201DC7
:10589000FCF778FD01A8FFF7C9FF054602980A2822
:1058A00064D2DFE800F06305072E365306082F3771
:1058B00000BF00BF00BF94F8280040F0010084F84A
:1058C00028000398A269811803462A462046FFF75C
:1058D00035FFA8B194F8280000F0040038B103980F
:1058E000A26981182A462046FFF750FF05E094F888
:1058F000280000F0FE0084F828002046216A88472E
:1059000035E000BF94F8280000F0FE0084F828007D
:105910002DE000BF94F8280040F0010084F8280032
:105920000398A061A06908B1012000E0002028B917
:1059300040F25E328DA194A000F0A6FDA06941194D
:105940002B462A462046FFF7F9FE10E094F828007F
:1059500000F0020018B9204600F036FB05E094F88C
:10596000280000F0FE0084F8280000E000BF00BF1F
:10597000002202A988480068FDF717FA00287FF482
:105980006CAF06B070BDF8B505460C46FEF718F9C9
:105990006846FFF74BFF0646009820BB44B9B54266
:1059A00006D8FEF710F831462846FFF703FF1CE043
:1059B0003CB16B480068006808B9012000E0002095
:1059C0000446A91B224674480068FDF7EEFCFDF76B
:1059D000FAFF50B94FF0805070490860BFF34F8F05
:1059E000BFF36F8F01E0FDF7EEFFF8BD01465D4AA2
:1059F000126812680AB9012200E000220A600A68EF
:105A000022B9584A1268D268106800E00020704736
:105A100008B500BF6846FFF7E9FF04462046009935
:105A2000FFF7B1FFFFF716FFF4E710B500F077FCC2
:105A300059480068D0B95A48FCF76EFC5948FCF741
:105A40006BFC5748474908605648454908600022A2
:105A500010210520FCF722FD4F4908600846006828
:105A600020B151A14C480068FDF755FC00F07AFCCC
:105A700010BD1CB50024FFF7D8FF4748006858B197
:105A80004B481F2100234FF48072CDE9001049A13B
:105A90004A48FDF7E3FD04462CB940F2191233A140
:105AA00039A000F0F1FC20461CBD2DE9F047064668
:105AB0000D4617469846DDE908940DB1012000E037
:105AC000002028B940F26B1228A12FA000F0DCFCC6
:105AD000FFF7ABFF2660A561C4F81C80C4F82090D6
